{
  "_format": "hh-sol-artifact-1",
  "contractName": "PlatformFeeManager",
  "sourceName": "contracts/platform/PlatformFeeManager.sol",
  "abi": [
    {
      "inputs": [
        {
          "internalType": "address payable",
          "name": "feeRecipient_",
          "type": "address"
        },
        {
          "internalType": "uint256",
          "name": "deploymentFeeWei_",
          "type": "uint256"
        },
        {
          "internalType": "uint256",
          "name": "buyFeeBps_",
          "type": "uint256"
        }
      ],
      "stateMutability": "nonpayable",
      "type": "constructor"
    },
    {
      "inputs": [],
      "name": "AccessControlBadConfirmation",
      "type": "error"
    },
    {
      "inputs": [
        {
          "internalType": "address",
          "name": "account",
          "type": "address"
        },
        {
          "internalType": "bytes32",
          "name": "neededRole",
          "type": "bytes32"
        }
      ],
      "name": "AccessControlUnauthorizedAccount",
      "type": "error"
    },
    {
      "inputs": [],
      "name": "FailedCall",
      "type": "error"
    },
    {
      "inputs": [
        {
          "internalType": "uint256",
          "name": "balance",
          "type": "uint256"
        },
        {
          "internalType": "uint256",
          "name": "needed",
          "type": "uint256"
        }
      ],
      "name": "InsufficientBalance",
      "type": "error"
    },
    {
      "inputs": [],
      "name": "ReentrancyGuardReentrantCall",
      "type": "error"
    },
    {
      "anonymous": false,
      "inputs": [
        {
          "indexed": true,
          "internalType": "address",
          "name": "buyer",
          "type": "address"
        },
        {
          "indexed": true,
          "internalType": "address",
          "name": "asset",
          "type": "address"
        },
        {
          "indexed": true,
          "internalType": "address",
          "name": "settledTo",
          "type": "address"
        },
        {
          "indexed": false,
          "internalType": "uint256",
          "name": "grossAmount",
          "type": "uint256"
        },
        {
          "indexed": false,
          "internalType": "uint256",
          "name": "feeAmount",
          "type": "uint256"
        }
      ],
      "name": "BuyFeeCollected",
      "type": "event"
    },
    {
      "anonymous": false,
      "inputs": [
        {
          "indexed": false,
          "internalType": "uint256",
          "name": "newFeeBps",
          "type": "uint256"
        }
      ],
      "name": "BuyFeeUpdated",
      "type": "event"
    },
    {
      "anonymous": false,
      "inputs": [
        {
          "indexed": true,
          "internalType": "address",
          "name": "issuer",
          "type": "address"
        },
        {
          "indexed": false,
          "internalType": "string",
          "name": "symbol",
          "type": "string"
        },
        {
          "indexed": false,
          "internalType": "uint256",
          "name": "amount",
          "type": "uint256"
        }
      ],
      "name": "DeploymentFeeCollected",
      "type": "event"
    },
    {
      "anonymous": false,
      "inputs": [
        {
          "indexed": false,
          "internalType": "uint256",
          "name": "newFeeWei",
          "type": "uint256"
        }
      ],
      "name": "DeploymentFeeUpdated",
      "type": "event"
    },
    {
      "anonymous": false,
      "inputs": [
        {
          "indexed": true,
          "internalType": "address",
          "name": "newRecipient",
          "type": "address"
        }
      ],
      "name": "FeeRecipientUpdated",
      "type": "event"
    },
    {
      "anonymous": false,
      "inputs": [
        {
          "indexed": true,
          "internalType": "bytes32",
          "name": "role",
          "type": "bytes32"
        },
        {
          "indexed": true,
          "internalType": "bytes32",
          "name": "previousAdminRole",
          "type": "bytes32"
        },
        {
          "indexed": true,
          "internalType": "bytes32",
          "name": "newAdminRole",
          "type": "bytes32"
        }
      ],
      "name": "RoleAdminChanged",
      "type": "event"
    },
    {
      "anonymous": false,
      "inputs": [
        {
          "indexed": true,
          "internalType": "bytes32",
          "name": "role",
          "type": "bytes32"
        },
        {
          "indexed": true,
          "internalType": "address",
          "name": "account",
          "type": "address"
        },
        {
          "indexed": true,
          "internalType": "address",
          "name": "sender",
          "type": "address"
        }
      ],
      "name": "RoleGranted",
      "type": "event"
    },
    {
      "anonymous": false,
      "inputs": [
        {
          "indexed": true,
          "internalType": "bytes32",
          "name": "role",
          "type": "bytes32"
        },
        {
          "indexed": true,
          "internalType": "address",
          "name": "account",
          "type": "address"
        },
        {
          "indexed": true,
          "internalType": "address",
          "name": "sender",
          "type": "address"
        }
      ],
      "name": "RoleRevoked",
      "type": "event"
    },
    {
      "inputs": [],
      "name": "DEFAULT_ADMIN_ROLE",
      "outputs": [
        {
          "internalType": "bytes32",
          "name": "",
          "type": "bytes32"
        }
      ],
      "stateMutability": "view",
      "type": "function"
    },
    {
      "inputs": [],
      "name": "FEE_ADMIN_ROLE",
      "outputs": [
        {
          "internalType": "bytes32",
          "name": "",
          "type": "bytes32"
        }
      ],
      "stateMutability": "view",
      "type": "function"
    },
    {
      "inputs": [],
      "name": "MAX_BUY_FEE_BPS",
      "outputs": [
        {
          "internalType": "uint256",
          "name": "",
          "type": "uint256"
        }
      ],
      "stateMutability": "view",
      "type": "function"
    },
    {
      "inputs": [],
      "name": "buyFeeBps",
      "outputs": [
        {
          "internalType": "uint256",
          "name": "",
          "type": "uint256"
        }
      ],
      "stateMutability": "view",
      "type": "function"
    },
    {
      "inputs": [
        {
          "internalType": "address",
          "name": "asset",
          "type": "address"
        },
        {
          "internalType": "address payable",
          "name": "settleTo",
          "type": "address"
        }
      ],
      "name": "collectBuyFee",
      "outputs": [
        {
          "internalType": "uint256",
          "name": "netAmount",
          "type": "uint256"
        }
      ],
      "stateMutability": "payable",
      "type": "function"
    },
    {
      "inputs": [],
      "name": "deploymentFeeWei",
      "outputs": [
        {
          "internalType": "uint256",
          "name": "",
          "type": "uint256"
        }
      ],
      "stateMutability": "view",
      "type": "function"
    },
    {
      "inputs": [],
      "name": "feeRecipient",
      "outputs": [
        {
          "internalType": "address payable",
          "name": "",
          "type": "address"
        }
      ],
      "stateMutability": "view",
      "type": "function"
    },
    {
      "inputs": [
        {
          "internalType": "bytes32",
          "name": "role",
          "type": "bytes32"
        }
      ],
      "name": "getRoleAdmin",
      "outputs": [
        {
          "internalType": "bytes32",
          "name": "",
          "type": "bytes32"
        }
      ],
      "stateMutability": "view",
      "type": "function"
    },
    {
      "inputs": [
        {
          "internalType": "bytes32",
          "name": "role",
          "type": "bytes32"
        },
        {
          "internalType": "address",
          "name": "account",
          "type": "address"
        }
      ],
      "name": "grantRole",
      "outputs": [],
      "stateMutability": "nonpayable",
      "type": "function"
    },
    {
      "inputs": [
        {
          "internalType": "bytes32",
          "name": "role",
          "type": "bytes32"
        },
        {
          "internalType": "address",
          "name": "account",
          "type": "address"
        }
      ],
      "name": "hasRole",
      "outputs": [
        {
          "internalType": "bool",
          "name": "",
          "type": "bool"
        }
      ],
      "stateMutability": "view",
      "type": "function"
    },
    {
      "inputs": [
        {
          "internalType": "string",
          "name": "symbol",
          "type": "string"
        }
      ],
      "name": "payDeploymentFee",
      "outputs": [],
      "stateMutability": "payable",
      "type": "function"
    },
    {
      "inputs": [
        {
          "internalType": "bytes32",
          "name": "role",
          "type": "bytes32"
        },
        {
          "internalType": "address",
          "name": "callerConfirmation",
          "type": "address"
        }
      ],
      "name": "renounceRole",
      "outputs": [],
      "stateMutability": "nonpayable",
      "type": "function"
    },
    {
      "inputs": [
        {
          "internalType": "bytes32",
          "name": "role",
          "type": "bytes32"
        },
        {
          "internalType": "address",
          "name": "account",
          "type": "address"
        }
      ],
      "name": "revokeRole",
      "outputs": [],
      "stateMutability": "nonpayable",
      "type": "function"
    },
    {
      "inputs": [
        {
          "internalType": "uint256",
          "name": "newFeeBps",
          "type": "uint256"
        }
      ],
      "name": "setBuyFeeBps",
      "outputs": [],
      "stateMutability": "nonpayable",
      "type": "function"
    },
    {
      "inputs": [
        {
          "internalType": "uint256",
          "name": "newFeeWei",
          "type": "uint256"
        }
      ],
      "name": "setDeploymentFee",
      "outputs": [],
      "stateMutability": "nonpayable",
      "type": "function"
    },
    {
      "inputs": [
        {
          "internalType": "address payable",
          "name": "newRecipient",
          "type": "address"
        }
      ],
      "name": "setFeeRecipient",
      "outputs": [],
      "stateMutability": "nonpayable",
      "type": "function"
    },
    {
      "inputs": [
        {
          "internalType": "bytes4",
          "name": "interfaceId",
          "type": "bytes4"
        }
      ],
      "name": "supportsInterface",
      "outputs": [
        {
          "internalType": "bool",
          "name": "",
          "type": "bool"
        }
      ],
      "stateMutability": "view",
      "type": "function"
    }
  ],
  "bytecode": "0x60803461014b57601f610ccf38819003918201601f19168301916001600160401b038311848410176101505780849260609460405283398101031261014b5780516001600160a01b038116919082900361014b57604060208201519101519160017f9b779b17422d0df92223018b32b4d1fa46e071723d6817e2486d003becc55f00558015610106576103e883116100ce5761009a33610166565b506100a4336101e4565b50600380546001600160a01b031916919091179055600155600255604051610a2a90816102858239f35b60405162461bcd60e51b815260206004820152601060248201526f084eaf240cccaca40e8dede40d0d2ced60831b6044820152606490fd5b60405162461bcd60e51b815260206004820152601660248201527f46656520726563697069656e74207265717569726564000000000000000000006044820152606490fd5b600080fd5b634e487b7160e01b600052604160045260246000fd5b6001600160a01b031660008181527fad3228b676f7d3cd4284a5443f17f1962b36e491b30a40b2405849e597ba5fb5602052604081205490919060ff166101e057818052816020526040822081835260205260408220600160ff198254161790553391600080516020610caf8339815191528180a4600190565b5090565b6001600160a01b031660008181527f9979a63573ae10f01f873a35d5febac454b7eb0ae2da7f29eb289e83d6e61ca060205260408120549091907f349eec46d2c564a125684d1934a6120a70cc341d3a26d362e358a775e07dec179060ff1661027f57808352826020526040832082845260205260408320600160ff19825416179055600080516020610caf833981519152339380a4600190565b50509056fe6080604081815260048036101561001557600080fd5b600092833560e01c90816301ffc9a71461070057508063248a9ca3146106d75780632b63de07146105aa5780632f2ff15d1461058157806334519a381461056257806336568abe1461051b5780633d8ccdc6146103a257806346904840146103795780634cba593a1461033e57806377d2300e1461031f5780639058c8a41461029157806391d148541461024c578063a217fddf14610231578063c67d561a14610210578063d002462b146101c3578063d547741f146101855763e74b981b146100de57600080fd5b34610181576020366003190112610181576100f761076f565b6100ff610785565b6001600160a01b031691821561014a575050600380546001600160a01b031916821790557f7a7b5a0a132f9e0581eb8527f66eae9ee89c2a3e79d4ac7e41a1f1f4d48a7fc28280a280f35b906020606492519162461bcd60e51b83528201526011602482015270125b9d985b1a59081c9958da5c1a595b9d607a1b6044820152fd5b8280fd5b5090346101815780600319360112610181576101bf91356101ba60016101a9610754565b9383875286602052862001546107ff565b6108a3565b5080f35b5034610181576020366003190112610181577f40bd824d588484917db8fa4fc894c1e0feae5a75885290ba7b97521cebf82a80916020913590610204610785565b8160015551908152a180f35b50503461022d578160031936011261022d57602090516103e88152f35b5080fd5b50503461022d578160031936011261022d5751908152602090f35b50346101815781600319360112610181578160209360ff9261026c610754565b903582528186528282206001600160a01b039091168252855220549151911615158152f35b509034610181576020366003190112610181578135916102af610785565b6103e883116102ea5750816020917f7c1445c98b278c9970d007fca6048704bcb25af7cc4a04eb56565d9a9f149ca39360025551908152a180f35b6020606492519162461bcd60e51b8352820152601060248201526f084eaf240cccaca40e8dede40d0d2ced60831b6044820152fd5b50503461022d578160031936011261022d576020906002549051908152f35b50503461022d578160031936011261022d57602090517f349eec46d2c564a125684d1934a6120a70cc341d3a26d362e358a775e07dec178152f35b50503461022d578160031936011261022d5760035490516001600160a01b039091168152602090f35b5091908060031936011261022d576103b861076f565b6103c0610754565b6103c86109b2565b34156104eb576001600160a01b038181169283156104a8576002548034029034820403610495576127109004928334039634881161048257506020975086610414918561046f57610918565b8451923484528784015216907f17d29b45ba3d3250de97663a0f188b303b148eed5a5f99612441a2be22862bc3843392a460017f9b779b17422d0df92223018b32b4d1fa46e071723d6817e2486d003becc55f005551908152f35b61047d868660035416610918565b610918565b634e487b7160e01b815260118952602490fd5b634e487b7160e01b875260118852602487fd5b845162461bcd60e51b8152602081890152601a60248201527f496e76616c696420736574746c656d656e7420616464726573730000000000006044820152606490fd5b825162461bcd60e51b8152602081870152600a602482015269139bc81c185e5b595b9d60b21b6044820152606490fd5b5091903461022d578060031936011261022d57610536610754565b90336001600160a01b0383160361055357506101bf9192356108a3565b5163334bd91960e11b81528390fd5b50503461022d578160031936011261022d576020906001549051908152f35b5090346101815780600319360112610181576101bf91356105a560016101a9610754565b610825565b5090602036600319011261018157813567ffffffffffffffff928382116106d357366023830112156106d357818101359384116106d35736602485840101116106d3576105f56109b2565b60015434036106905750908260247f787387de715246a2932d8587588756b6d728bc1dab71d47d087ccb80e57d1006936106393460018060a01b0360035416610918565b8284519480865285015201606083013783606084830101523460208201526060813394601f80199101168101030190a260017f9b779b17422d0df92223018b32b4d1fa46e071723d6817e2486d003becc55f005580f35b606490602084519162461bcd60e51b8352820152601860248201527f496e636f7272656374206465706c6f796d656e742066656500000000000000006044820152fd5b8480fd5b503461018157602036600319011261018157816020936001923581528085522001549051908152f35b92505034610181576020366003190112610181573563ffffffff60e01b81168091036101815760209250637965db0b60e01b8114908115610743575b5015158152f35b6301ffc9a760e01b1490503861073c565b602435906001600160a01b038216820361076a57565b600080fd5b600435906001600160a01b038216820361076a57565b3360009081527f9979a63573ae10f01f873a35d5febac454b7eb0ae2da7f29eb289e83d6e61ca060205260409020547f349eec46d2c564a125684d1934a6120a70cc341d3a26d362e358a775e07dec179060ff16156107e15750565b6044906040519063e2517d3f60e01b82523360048301526024820152fd5b80600052600060205260406000203360005260205260ff60406000205416156107e15750565b9060009180835282602052604083209160018060a01b03169182845260205260ff6040842054161560001461089e57808352826020526040832082845260205260408320600160ff198254161790557f2f8788117e7eff1d82e926ec794901d17c78024a50270940304540a733656f0d339380a4600190565b505090565b9060009180835282602052604083209160018060a01b03169182845260205260ff60408420541660001461089e5780835282602052604083208284526020526040832060ff1981541690557ff6391f5c32d9c69d2a47ea670b442974b53935d1edc7fd64eb21e047a839171b339380a4600190565b814710610993576040516020810181811067ffffffffffffffff82111761097d57604052600080809481948280955260018060a01b03165af1156109595750565b3d1561096b57604051903d90823e3d90fd5b60405163d6bda27560e01b8152600490fd5b634e487b7160e01b600052604160045260246000fd5b60405163cf47918160e01b815247600482015260248101839052604490fd5b7f9b779b17422d0df92223018b32b4d1fa46e071723d6817e2486d003becc55f0060028154146109e25760029055565b604051633ee5aeb560e01b8152600490fdfea2646970667358221220cb8d305a809f093072a863ead952e37408c9cc6198fb80405c3d89ec64ea83a164736f6c634300081400332f8788117e7eff1d82e926ec794901d17c78024a50270940304540a733656f0d",
  "linkReferences": {},
  "deployedLinkReferences": {}
}