{"contracts/yield/YieldDistributor.sol":{"YieldDistributor":{"abi":[{"inputs":[],"stateMutability":"nonpayable","type":"constructor"},{"inputs":[],"name":"AccessControlBadConfirmation","type":"error"},{"inputs":[{"internalType":"address","name":"account","type":"address"},{"internalType":"bytes32","name":"neededRole","type":"bytes32"}],"name":"AccessControlUnauthorizedAccount","type":"error"},{"inputs":[],"name":"ReentrancyGuardReentrantCall","type":"error"},{"anonymous":false,"inputs":[{"indexed":true,"internalType":"bytes32","name":"role","type":"bytes32"},{"indexed":true,"internalType":"bytes32","name":"previousAdminRole","type":"bytes32"},{"indexed":true,"internalType":"bytes32","name":"newAdminRole","type":"bytes32"}],"name":"RoleAdminChanged","type":"event"},{"anonymous":false,"inputs":[{"indexed":true,"internalType":"bytes32","name":"role","type":"bytes32"},{"indexed":true,"internalType":"address","name":"account","type":"address"},{"indexed":true,"internalType":"address","name":"sender","type":"address"}],"name":"RoleGranted","type":"event"},{"anonymous":false,"inputs":[{"indexed":true,"internalType":"bytes32","name":"role","type":"bytes32"},{"indexed":true,"internalType":"address","name":"account","type":"address"},{"indexed":true,"internalType":"address","name":"sender","type":"address"}],"name":"RoleRevoked","type":"event"},{"anonymous":false,"inputs":[{"indexed":true,"internalType":"uint256","name":"positionId","type":"uint256"},{"indexed":true,"internalType":"uint256","name":"strategyId","type":"uint256"},{"indexed":false,"internalType":"address","name":"staker","type":"address"},{"indexed":false,"internalType":"uint256","name":"amount","type":"uint256"}],"name":"Staked","type":"event"},{"anonymous":false,"inputs":[{"indexed":true,"internalType":"uint256","name":"strategyId","type":"uint256"},{"indexed":false,"internalType":"string","name":"name","type":"string"},{"indexed":false,"internalType":"enum YieldDistributor.StrategyType","name":"strategyType","type":"uint8"},{"indexed":false,"internalType":"uint256","name":"apyBps","type":"uint256"}],"name":"StrategyCreated","type":"event"},{"anonymous":false,"inputs":[{"indexed":true,"internalType":"uint256","name":"strategyId","type":"uint256"},{"indexed":false,"internalType":"uint256","name":"newApyBps","type":"uint256"},{"indexed":false,"internalType":"bool","name":"active","type":"bool"}],"name":"StrategyUpdated","type":"event"},{"anonymous":false,"inputs":[{"indexed":true,"internalType":"uint256","name":"positionId","type":"uint256"},{"indexed":false,"internalType":"address","name":"staker","type":"address"},{"indexed":false,"internalType":"uint256","name":"amount","type":"uint256"}],"name":"Unstaked","type":"event"},{"anonymous":false,"inputs":[{"indexed":true,"internalType":"uint256","name":"positionId","type":"uint256"},{"indexed":false,"internalType":"address","name":"staker","type":"address"},{"indexed":false,"internalType":"uint256","name":"yieldAmount","type":"uint256"}],"name":"YieldClaimed","type":"event"},{"anonymous":false,"inputs":[{"indexed":false,"internalType":"uint256","name":"amount","type":"uint256"}],"name":"YieldPoolFunded","type":"event"},{"inputs":[],"name":"DEFAULT_ADMIN_ROLE","outputs":[{"internalType":"bytes32","name":"","type":"bytes32"}],"stateMutability":"view","type":"function"},{"inputs":[],"name":"YIELD_ADMIN","outputs":[{"internalType":"bytes32","name":"","type":"bytes32"}],"stateMutability":"view","type":"function"},{"inputs":[{"internalType":"uint256","name":"positionId","type":"uint256"}],"name":"calculateYield","outputs":[{"internalType":"uint256","name":"","type":"uint256"}],"stateMutability":"view","type":"function"},{"inputs":[{"internalType":"uint256","name":"positionId","type":"uint256"}],"name":"claimYield","outputs":[],"stateMutability":"nonpayable","type":"function"},{"inputs":[{"internalType":"string","name":"name_","type":"string"},{"internalType":"enum YieldDistributor.StrategyType","name":"type_","type":"uint8"},{"internalType":"address","name":"underlyingToken_","type":"address"},{"internalType":"uint256","name":"apyBps_","type":"uint256"},{"internalType":"uint256","name":"minStake_","type":"uint256"},{"internalType":"uint256","name":"lockDuration_","type":"uint256"}],"name":"createStrategy","outputs":[],"stateMutability":"nonpayable","type":"function"},{"inputs":[],"name":"fundYieldPool","outputs":[],"stateMutability":"payable","type":"function"},{"inputs":[],"name":"getPositionCount","outputs":[{"internalType":"uint256","name":"","type":"uint256"}],"stateMutability":"view","type":"function"},{"inputs":[{"internalType":"bytes32","name":"role","type":"bytes32"}],"name":"getRoleAdmin","outputs":[{"internalType":"bytes32","name":"","type":"bytes32"}],"stateMutability":"view","type":"function"},{"inputs":[],"name":"getStrategyCount","outputs":[{"internalType":"uint256","name":"","type":"uint256"}],"stateMutability":"view","type":"function"},{"inputs":[{"internalType":"address","name":"user","type":"address"}],"name":"getUserPositionDetails","outputs":[{"components":[{"internalType":"uint256","name":"strategyId","type":"uint256"},{"internalType":"address","name":"staker","type":"address"},{"internalType":"uint256","name":"amount","type":"uint256"},{"internalType":"uint256","name":"stakedAt","type":"uint256"},{"internalType":"uint256","name":"lastClaimAt","type":"uint256"},{"internalType":"uint256","name":"totalClaimed","type":"uint256"},{"internalType":"bool","name":"active","type":"bool"}],"internalType":"struct YieldDistributor.StakePosition[]","name":"","type":"tuple[]"}],"stateMutability":"view","type":"function"},{"inputs":[{"internalType":"address","name":"user","type":"address"}],"name":"getUserPositions","outputs":[{"internalType":"uint256[]","name":"","type":"uint256[]"}],"stateMutability":"view","type":"function"},{"inputs":[{"internalType":"bytes32","name":"role","type":"bytes32"},{"internalType":"address","name":"account","type":"address"}],"name":"grantRole","outputs":[],"stateMutability":"nonpayable","type":"function"},{"inputs":[{"internalType":"bytes32","name":"role","type":"bytes32"},{"internalType":"address","name":"account","type":"address"}],"name":"hasRole","outputs":[{"internalType":"bool","name":"","type":"bool"}],"stateMutability":"view","type":"function"},{"inputs":[{"internalType":"uint256","name":"","type":"uint256"}],"name":"positions","outputs":[{"internalType":"uint256","name":"strategyId","type":"uint256"},{"internalType":"address","name":"staker","type":"address"},{"internalType":"uint256","name":"amount","type":"uint256"},{"internalType":"uint256","name":"stakedAt","type":"uint256"},{"internalType":"uint256","name":"lastClaimAt","type":"uint256"},{"internalType":"uint256","name":"totalClaimed","type":"uint256"},{"internalType":"bool","name":"active","type":"bool"}],"stateMutability":"view","type":"function"},{"inputs":[{"internalType":"bytes32","name":"role","type":"bytes32"},{"internalType":"address","name":"callerConfirmation","type":"address"}],"name":"renounceRole","outputs":[],"stateMutability":"nonpayable","type":"function"},{"inputs":[{"internalType":"bytes32","name":"role","type":"bytes32"},{"internalType":"address","name":"account","type":"address"}],"name":"revokeRole","outputs":[],"stateMutability":"nonpayable","type":"function"},{"inputs":[{"internalType":"uint256","name":"strategyId","type":"uint256"}],"name":"stake","outputs":[],"stateMutability":"payable","type":"function"},{"inputs":[{"internalType":"uint256","name":"","type":"uint256"}],"name":"strategies","outputs":[{"internalType":"string","name":"name","type":"string"},{"internalType":"enum YieldDistributor.StrategyType","name":"strategyType","type":"uint8"},{"internalType":"address","name":"underlyingToken","type":"address"},{"internalType":"uint256","name":"apyBps","type":"uint256"},{"internalType":"uint256","name":"totalStaked","type":"uint256"},{"internalType":"uint256","name":"totalYieldPaid","type":"uint256"},{"internalType":"uint256","name":"minStake","type":"uint256"},{"internalType":"uint256","name":"lockDuration","type":"uint256"},{"internalType":"bool","name":"active","type":"bool"}],"stateMutability":"view","type":"function"},{"inputs":[{"internalType":"bytes4","name":"interfaceId","type":"bytes4"}],"name":"supportsInterface","outputs":[{"internalType":"bool","name":"","type":"bool"}],"stateMutability":"view","type":"function"},{"inputs":[{"internalType":"uint256","name":"positionId","type":"uint256"}],"name":"unstake","outputs":[],"stateMutability":"nonpayable","type":"function"},{"inputs":[{"internalType":"uint256","name":"strategyId","type":"uint256"},{"internalType":"uint256","name":"newApyBps","type":"uint256"},{"internalType":"bool","name":"active_","type":"bool"}],"name":"updateStrategy","outputs":[],"stateMutability":"nonpayable","type":"function"},{"inputs":[{"internalType":"address","name":"","type":"address"},{"internalType":"uint256","name":"","type":"uint256"}],"name":"userPositions","outputs":[{"internalType":"uint256","name":"","type":"uint256"}],"stateMutability":"view","type":"function"},{"inputs":[],"name":"yieldPool","outputs":[{"internalType":"uint256","name":"","type":"uint256"}],"stateMutability":"view","type":"function"},{"stateMutability":"payable","type":"receive"}],"evm":{"bytecode":{"linkReferences":{},"object":"6080604052346100515760017f9b779b17422d0df92223018b32b4d1fa46e071723d6817e2486d003becc55f005561003633610056565b50610040336100d5565b506040516118fc9081620001778239f35b600080fd5b6001600160a01b031660008181527fad3228b676f7d3cd4284a5443f17f1962b36e491b30a40b2405849e597ba5fb5602052604081205490919060ff166100d157818052816020526040822081835260205260408220600160ff19825416179055339160008051602062001a738339815191528180a4600190565b5090565b6001600160a01b031660008181527f723efaeed11da5672966b7048fd8bd0986c1aec775aa9c00248a7065addc962160205260408120549091907f0a3c6206d9c0454367619008e1a198954846f9c236c64d4ce0d3e2d1f11c31659060ff1661017157808352826020526040832082845260205260408320600160ff1982541617905560008051602062001a73833981519152339380a4600190565b50509056fe6080806040526004361015610025575b50361561001b57600080fd5b61002361156d565b005b60003560e01c90816301ffc9a7146111635750806313901cf61461114f578063200290bb14610dfd578063248a9ca314610dce5780632a6bc2dd14610d1a5780632e17de7814610b215780632f2ff15d14610ae257806331e19cfa14610ac457806336568abe14610a7d57806340bd2e23146108f65780634af407111461085a5780635e1b4d99146108015780636c914d3d146107c657806380a3301b146107a057806381683476146107825780638f188dd41461076457806391d148541461071757806399fbab8814610696578063a217fddf1461067a578063a694fc3a14610442578063b0bbe03814610267578063d547741f146102285763d574ea3d1461012f573861000f565b3461022357602036600319011261022357600435600154811015610223576101569061124b565b506101608161131a565b906001810154600282015491600381015490600481015460058201549060ff6007600685015494015416936040519661012096878952895180988a015260005b88811061020c57509187959391899795936000610140809b8b0101526101cc60208a0160ff83166113c0565b60081c6001600160a01b031660408901526060880152608087015260a086015260c085015260e08401521515610100830152601f01601f19168101030190f35b80602080928d010151610140828d010152016101a0565b600080fd5b34610223576040366003190112610223576100236004356102476111cc565b90806000526000602052610262600160406000200154611447565b6114eb565b3461022357602080600319360112610223576001600160a01b038061028a6111b6565b16600052600382526040600020604051808285829454938481520190600052856000209260005b8782821061042c575050506102c8925003826112f8565b8051916102d48361187a565b926102e260405194856112f8565b8084526102f1601f199161187a565b018460005b8281106103e55750505060005b82518110156103655761032861032261031c8386611892565b51611210565b50611730565b6103328286611892565b5261033d8185611892565b50600019811461034f57600101610303565b634e487b7160e01b600052601160045260246000fd5b508383604051918083018184528251809152816040850193019160005b82811061038f5785850386f35b8351805186528083015188168684015260408082015190870152606080820151908701526080808201519087015260a0808201519087015260c09081015115159086015260e09094019392810192600101610382565b6040516103f1816112dc565b60008152600083820152600060408201526000606082015260006080820152600060a0820152600060c08201528282880101520185906102f6565b85548452600195860195879550930192016102b1565b60203660031901126102235760043561045961161c565b600190610468825482106115dd565b6104718161124b565b5060ff60078201541615610641576005810154341061060a57600254906040519061049b826112dc565b8382526020820190338252604083019134835260608401428152608085019442865260a081016000815260c08201908a8252600160401b97888a10156105de578b8a016002556104ea8a611210565b9590956105f45760039861054f978e60069751895588019060018060a01b039051166bffffffffffffffffffffffff60a01b825416179055516002870155518886015551600485015551600584015551151591019060ff801983541691151516179055565b0161055b348254611560565b90553360005260036020526040600020908154908110156105de576105849185820181556111e2565b815460001960039290921b91821b19169083901b179055604080513381523460208201527fc49cabe9d2bbfea8d9f51b0961c30a1081ff6fd3c4d6a9182cd65de8cea2df009190a36000805160206118a783398151915255005b634e487b7160e01b600052604160045260246000fd5b634e487b7160e01b600052600060045260246000fd5b60405162461bcd60e51b815260206004820152600f60248201526e42656c6f77206d696e207374616b6560881b6044820152606490fd5b60405162461bcd60e51b8152602060048201526011602482015270537472617465677920696e61637469766560781b6044820152606490fd5b3461022357600036600319011261022357602060405160008152f35b3461022357602036600319011261022357600435600254811015610223576106bf60e091611210565b5080549060018060a01b03600182015416906002810154600382015460048301549160ff600660058601549501541694604051968752602087015260408601526060850152608084015260a0830152151560c0820152f35b34610223576040366003190112610223576107306111cc565b600435600052600060205260406000209060018060a01b0316600052602052602060ff604060002054166040519015158152f35b34610223576000366003190112610223576020600454604051908152f35b34610223576000366003190112610223576020600254604051908152f35b346102235760203660031901126102235760206107be6004356117a1565b604051908152f35b346102235760003660031901126102235760206040517f0a3c6206d9c0454367619008e1a198954846f9c236c64d4ce0d3e2d1f11c31658152f35b346102235760403660031901126102235761081a6111b6565b6001600160a01b03166000908152600360205260409020805460243591908210156102235760209161084b916111e2565b90549060031b1c604051908152f35b346102235760603660031901126102235760043560243560443580151591828203610223577f9502b96ae761fbc05fa843257169bfd18e3e1f737a419c61f3da2a1a501689f9926108e96040936108af6113cd565b6108bc60015488106115dd565b8360026108c88961124b565b50015560076108d68861124b565b50019060ff801983541691151516179055565b82519182526020820152a2005b346102235760203660031901126102235760043561091261161c565b61091b81611210565b5061093360018060a01b03600183015416331461164c565b61094360ff600683015416611684565b61094c826117a1565b908115610a4d578160045410610a08577f1448cb68839238fd008abe5bad73d996f9849e020313466fa9f3476d98006df29160046109b06109f19342838201556005810161099b858254611560565b90556109a88484546115d0565b83555461124b565b50016109bd828254611560565b90556109d9600080808085335af16109d36116c2565b506116f2565b60408051338152602081019290925290918291820190565b0390a260016000805160206118a783398151915255005b60405162461bcd60e51b815260206004820152601760248201527f496e73756666696369656e74207969656c6420706f6f6c0000000000000000006044820152606490fd5b60405162461bcd60e51b8152602060048201526008602482015267139bc81e5a595b1960c21b6044820152606490fd5b3461022357604036600319011261022357610a966111cc565b336001600160a01b03821603610ab257610023906004356114eb565b60405163334bd91960e11b8152600490fd5b34610223576000366003190112610223576020600154604051908152f35b3461022357604036600319011261022357610023600435610b016111cc565b90806000526000602052610b1c600160406000200154611447565b61146d565b3461022357602036600319011261022357600435610b3d61161c565b610b4681611210565b50610b5e60018060a01b03600183015416331461164c565b600681019082825492610b7360ff8516611684565b610b7d835461124b565b50600681015480610cc9575b507f37375b03d8924bd8f076f11f8411b9962aa5c02fb489021507bc6bb6f850e36591610c5591610bb9856117a1565b9687916002880193845490610bce8583611560565b9360ff19169055610be4600383019182546115d0565b9055821515978880610cbd575b15610caa5760008093600582949387610c2060048697610c15610c3c9c83546115d0565b825501918254611560565b905501610c2e8d8254611560565b90555b335af16109d36116c2565b5460408051338152602081019290925290918291820190565b0390a2610c71575b60016000805160206118a783398151915255005b6040805133815260208101929092527f1448cb68839238fd008abe5bad73d996f9849e020313466fa9f3476d98006df291a28080610c5d565b50505050610c3c60008080808554610c31565b50836004541015610bf1565b610cd99193506003850154611560565b4210610ce757849186610b89565b60405162461bcd60e51b815260206004820152600b60248201526a4c6f636b2061637469766560a81b6044820152606490fd5b3461022357602080600319360112610223576001600160a01b03610d3c6111b6565b1660005260038152604060002060405190818382549182815201908192600052846000209060005b86828210610dba578686610d7a828803836112f8565b604051928392818401908285525180915260408401929160005b828110610da357505050500390f35b835185528695509381019392810192600101610d94565b835485529093019260019283019201610d64565b346102235760203660031901126102235760043560005260006020526020600160406000200154604051908152f35b346102235760c03660031901126102235767ffffffffffffffff60043581811161022357366023820112156102235781816004013511610223573660248260040135830101116102235760046024351015610223576044356001600160a01b0381169081900361022357610e6f6113cd565b60405190610e7c826112bf565b610e8983600401356115a8565b610e9660405191826112f8565b6004840135808252602485016020830137600060208560040135830101528252610ec5602435602084016115c4565b6040820152606435606082015260006080820152600060a082015260843560c082015260a43560e08201526001610100820152600154600160401b8110156105de57806001610f17920160015561124b565b6105f45781519384519081116105de57610f318254611285565b601f811161110b575b506020601f82116001146110a2578192939495600092611097575b50508160011b916000199060031b1c19161781555b6020820151916004831015611081576001820180546040830151610100600160a81b0360089190911b1660ff9586166001600160a81b031990921691909117179055606081015160028301556080810151600383015560a0810151600483015560c0810151600583015560e0810151600683015561010001516007909101805460ff191691151590921617905560015460001981019190821161034f577fe609f9b4ef0c6c3298ba910cd98c7104cf40558dbfe77113c10bbb478724c32f9060806040518092606082528060040135606083015280600401356024820184840137600083826004013584010152611066602083016024356113c0565b606435604083015260040135601f01601f19168101030190a2005b634e487b7160e01b600052602160045260246000fd5b015190508580610f55565b8260005260206000209060005b601f19841681106110f3575060019394959683601f198116106110da575b505050811b018155610f6a565b015160001960f88460031b161c191690558580806110cd565b9091602060018192858b0151815501930191016110af565b826000526020600020601f830160051c810160208410611148575b601f830160051c8201811061113c575050610f3a565b60008155600101611126565b5080611126565b60003660031901126102235761001b6113cd565b34610223576020366003190112610223576004359063ffffffff60e01b821680920361022357602091637965db0b60e01b81149081156111a5575b5015158152f35b6301ffc9a760e01b1490508361119e565b600435906001600160a01b038216820361022357565b602435906001600160a01b038216820361022357565b80548210156111fa5760005260206000200190600090565b634e487b7160e01b600052603260045260246000fd5b6002548110156111fa576007906002600052027f405787fa12a823e0f2b7631cc41b3ba8828b3321ca811111fa75cd3aa3bb5ace0190600090565b6001548110156111fa57600160005260031b7fb10e2d527612073b26eecdfd717e6a320cf44b4afac2b0732d9fcbe2b7fa0cf60190600090565b90600182811c921680156112b5575b602083101461129f57565b634e487b7160e01b600052602260045260246000fd5b91607f1691611294565b610120810190811067ffffffffffffffff8211176105de57604052565b60e0810190811067ffffffffffffffff8211176105de57604052565b90601f8019910116810190811067ffffffffffffffff8211176105de57604052565b906040519182600082549261132e84611285565b90818452600194858116908160001461139d575060011461135a575b5050611358925003836112f8565b565b9093915060005260209081600020936000915b8183106113855750506113589350820101388061134a565b8554888401850152948501948794509183019161136d565b91505061135894506020925060ff191682840152151560051b820101388061134a565b9060048210156110815752565b3360009081527f723efaeed11da5672966b7048fd8bd0986c1aec775aa9c00248a7065addc962160205260409020547f0a3c6206d9c0454367619008e1a198954846f9c236c64d4ce0d3e2d1f11c31659060ff16156114295750565b6044906040519063e2517d3f60e01b82523360048301526024820152fd5b80600052600060205260406000203360005260205260ff60406000205416156114295750565b9060009180835282602052604083209160018060a01b03169182845260205260ff604084205416156000146114e657808352826020526040832082845260205260408320600160ff198254161790557f2f8788117e7eff1d82e926ec794901d17c78024a50270940304540a733656f0d339380a4600190565b505090565b9060009180835282602052604083209160018060a01b03169182845260205260ff6040842054166000146114e65780835282602052604083208284526020526040832060ff1981541690557ff6391f5c32d9c69d2a47ea670b442974b53935d1edc7fd64eb21e047a839171b339380a4600190565b9190820180921161034f57565b61157934600454611560565b6004557fec18f113d1f288691a2d2a6706471a8a068feb27aff1740d1b4ec1f60072a75a6020604051348152a1565b67ffffffffffffffff81116105de57601f01601f191660200190565b60048210156110815752565b9190820391821161034f57565b156115e457565b60405162461bcd60e51b815260206004820152601060248201526f496e76616c696420737472617465677960801b6044820152606490fd5b6000805160206118a7833981519152600281541461163a5760029055565b604051633ee5aeb560e01b8152600490fd5b1561165357565b60405162461bcd60e51b81526020600482015260096024820152682737ba1037bbb732b960b91b6044820152606490fd5b1561168b57565b60405162461bcd60e51b815260206004820152600f60248201526e141bdcda5d1a5bdb8818db1bdcd959608a1b6044820152606490fd5b3d156116ed573d906116d3826115a8565b916116e160405193846112f8565b82523d6000602084013e565b606090565b156116f957565b60405162461bcd60e51b815260206004820152600f60248201526e151c985b9cd9995c8819985a5b1959608a1b6044820152606490fd5b9060405161173d816112dc565b8254815260018301546001600160a01b03166020820152600283015460408201526003830154606082015260048301546080820152600583015460a082015260069092015460ff16151560c0830152565b8181029291811591840414171561034f57565b6103226117ad91611210565b60c081015115611874576118708161186b6117ce64496cebb800945161124b565b506040516117db816112bf565b6117e48261131a565b815260018201546117fb60ff8216602084016115c4565b60018060a01b039060081c16604082015261010060ff60076002850154946060850195865260038101546080860152600481015460a0860152600581015460c0860152600681015460e0860152015416151591015260406118606080850151426115d0565b93015190519061178e565b61178e565b0490565b50600090565b67ffffffffffffffff81116105de5760051b60200190565b80518210156111fa5760209160051b01019056fe9b779b17422d0df92223018b32b4d1fa46e071723d6817e2486d003becc55f00a264697066735822122043f87ce5966e481d344c96dbe96ac049108c74f2630167219787af9d1914f67564736f6c634300081400332f8788117e7eff1d82e926ec794901d17c78024a50270940304540a733656f0d","opcodes":"PUSH1 0x80 PUSH1 0x40 MSTORE CALLVALUE PUSH2 0x51 JUMPI PUSH1 0x1 PUSH32 0x9B779B17422D0DF92223018B32B4D1FA46E071723D6817E2486D003BECC55F00 SSTORE PUSH2 0x36 CALLER PUSH2 0x56 JUMP JUMPDEST POP PUSH2 0x40 CALLER PUSH2 0xD5 JUMP JUMPDEST POP PUSH1 0x40 MLOAD PUSH2 0x18FC SWAP1 DUP2 PUSH3 0x177 DUP3 CODECOPY RETURN JUMPDEST PUSH1 0x0 DUP1 REVERT JUMPDEST PUSH1 0x1 PUSH1 0x1 PUSH1 0xA0 SHL SUB AND PUSH1 0x0 DUP2 DUP2 MSTORE PUSH32 0xAD3228B676F7D3CD4284A5443F17F1962B36E491B30A40B2405849E597BA5FB5 PUSH1 0x20 MSTORE PUSH1 0x40 DUP2 KECCAK256 SLOAD SWAP1 SWAP2 SWAP1 PUSH1 0xFF AND PUSH2 0xD1 JUMPI DUP2 DUP1 MSTORE DUP2 PUSH1 0x20 MSTORE PUSH1 0x40 DUP3 KECCAK256 DUP2 DUP4 MSTORE PUSH1 0x20 MSTORE PUSH1 0x40 DUP3 KECCAK256 PUSH1 0x1 PUSH1 0xFF NOT DUP3 SLOAD AND OR SWAP1 SSTORE CALLER SWAP2 PUSH1 0x0 DUP1 MLOAD PUSH1 0x20 PUSH3 0x1A73 DUP4 CODECOPY DUP2 MLOAD SWAP2 MSTORE DUP2 DUP1 LOG4 PUSH1 0x1 SWAP1 JUMP JUMPDEST POP SWAP1 JUMP JUMPDEST PUSH1 0x1 PUSH1 0x1 PUSH1 0xA0 SHL SUB AND PUSH1 0x0 DUP2 DUP2 MSTORE PUSH32 0x723EFAEED11DA5672966B7048FD8BD0986C1AEC775AA9C00248A7065ADDC9621 PUSH1 0x20 MSTORE PUSH1 0x40 DUP2 KECCAK256 SLOAD SWAP1 SWAP2 SWAP1 PUSH32 0xA3C6206D9C0454367619008E1A198954846F9C236C64D4CE0D3E2D1F11C3165 SWAP1 PUSH1 0xFF AND PUSH2 0x171 JUMPI DUP1 DUP4 MSTORE DUP3 PUSH1 0x20 MSTORE PUSH1 0x40 DUP4 KECCAK256 DUP3 DUP5 MSTORE PUSH1 0x20 MSTORE PUSH1 0x40 DUP4 KECCAK256 PUSH1 0x1 PUSH1 0xFF NOT DUP3 SLOAD AND OR SWAP1 SSTORE PUSH1 0x0 DUP1 MLOAD PUSH1 0x20 PUSH3 0x1A73 DUP4 CODECOPY DUP2 MLOAD SWAP2 MSTORE CALLER SWAP4 DUP1 LOG4 PUSH1 0x1 SWAP1 JUMP JUMPDEST POP POP SWAP1 JUMP INVALID PUSH1 0x80 DUP1 PUSH1 0x40 MSTORE PUSH1 0x4 CALLDATASIZE LT ISZERO PUSH2 0x25 JUMPI JUMPDEST POP CALLDATASIZE ISZERO PUSH2 0x1B JUMPI PUSH1 0x0 DUP1 REVERT JUMPDEST PUSH2 0x23 PUSH2 0x156D JUMP JUMPDEST STOP JUMPDEST PUSH1 0x0 CALLDATALOAD PUSH1 0xE0 SHR SWAP1 DUP2 PUSH4 0x1FFC9A7 EQ PUSH2 0x1163 JUMPI POP DUP1 PUSH4 0x13901CF6 EQ PUSH2 0x114F JUMPI DUP1 PUSH4 0x200290BB EQ PUSH2 0xDFD JUMPI DUP1 PUSH4 0x248A9CA3 EQ PUSH2 0xDCE JUMPI DUP1 PUSH4 0x2A6BC2DD EQ PUSH2 0xD1A JUMPI DUP1 PUSH4 0x2E17DE78 EQ PUSH2 0xB21 JUMPI DUP1 PUSH4 0x2F2FF15D EQ PUSH2 0xAE2 JUMPI DUP1 PUSH4 0x31E19CFA EQ PUSH2 0xAC4 JUMPI DUP1 PUSH4 0x36568ABE EQ PUSH2 0xA7D JUMPI DUP1 PUSH4 0x40BD2E23 EQ PUSH2 0x8F6 JUMPI DUP1 PUSH4 0x4AF40711 EQ PUSH2 0x85A JUMPI DUP1 PUSH4 0x5E1B4D99 EQ PUSH2 0x801 JUMPI DUP1 PUSH4 0x6C914D3D EQ PUSH2 0x7C6 JUMPI DUP1 PUSH4 0x80A3301B EQ PUSH2 0x7A0 JUMPI DUP1 PUSH4 0x81683476 EQ PUSH2 0x782 JUMPI DUP1 PUSH4 0x8F188DD4 EQ PUSH2 0x764 JUMPI DUP1 PUSH4 0x91D14854 EQ PUSH2 0x717 JUMPI DUP1 PUSH4 0x99FBAB88 EQ PUSH2 0x696 JUMPI DUP1 PUSH4 0xA217FDDF EQ PUSH2 0x67A JUMPI DUP1 PUSH4 0xA694FC3A EQ PUSH2 0x442 JUMPI DUP1 PUSH4 0xB0BBE038 EQ PUSH2 0x267 JUMPI DUP1 PUSH4 0xD547741F EQ PUSH2 0x228 JUMPI PUSH4 0xD574EA3D EQ PUSH2 0x12F JUMPI CODESIZE PUSH2 0xF JUMP JUMPDEST CALLVALUE PUSH2 0x223 JUMPI PUSH1 0x20 CALLDATASIZE PUSH1 0x3 NOT ADD SLT PUSH2 0x223 JUMPI PUSH1 0x4 CALLDATALOAD PUSH1 0x1 SLOAD DUP2 LT ISZERO PUSH2 0x223 JUMPI PUSH2 0x156 SWAP1 PUSH2 0x124B JUMP JUMPDEST POP PUSH2 0x160 DUP2 PUSH2 0x131A JUMP JUMPDEST SWAP1 PUSH1 0x1 DUP2 ADD SLOAD PUSH1 0x2 DUP3 ADD SLOAD SWAP2 PUSH1 0x3 DUP2 ADD SLOAD SWAP1 PUSH1 0x4 DUP2 ADD SLOAD PUSH1 0x5 DUP3 ADD SLOAD SWAP1 PUSH1 0xFF PUSH1 0x7 PUSH1 0x6 DUP6 ADD SLOAD SWAP5 ADD SLOAD AND SWAP4 PUSH1 0x40 MLOAD SWAP7 PUSH2 0x120 SWAP7 DUP8 DUP10 MSTORE DUP10 MLOAD DUP1 SWAP9 DUP11 ADD MSTORE PUSH1 0x0 JUMPDEST DUP9 DUP2 LT PUSH2 0x20C JUMPI POP SWAP2 DUP8 SWAP6 SWAP4 SWAP2 DUP10 SWAP8 SWAP6 SWAP4 PUSH1 0x0 PUSH2 0x140 DUP1 SWAP12 DUP12 ADD ADD MSTORE PUSH2 0x1CC PUSH1 0x20 DUP11 ADD PUSH1 0xFF DUP4 AND PUSH2 0x13C0 JUMP JUMPDEST PUSH1 0x8 SHR PUSH1 0x1 PUSH1 0x1 PUSH1 0xA0 SHL SUB AND PUSH1 0x40 DUP10 ADD MSTORE PUSH1 0x60 DUP9 ADD MSTORE PUSH1 0x80 DUP8 ADD MSTORE PUSH1 0xA0 DUP7 ADD MSTORE PUSH1 0xC0 DUP6 ADD MSTORE PUSH1 0xE0 DUP5 ADD MSTORE ISZERO ISZERO PUSH2 0x100 DUP4 ADD MSTORE PUSH1 0x1F ADD PUSH1 0x1F NOT AND DUP2 ADD SUB ADD SWAP1 RETURN JUMPDEST DUP1 PUSH1 0x20 DUP1 SWAP3 DUP14 ADD ADD MLOAD PUSH2 0x140 DUP3 DUP14 ADD ADD MSTORE ADD PUSH2 0x1A0 JUMP JUMPDEST PUSH1 0x0 DUP1 REVERT JUMPDEST CALLVALUE PUSH2 0x223 JUMPI PUSH1 0x40 CALLDATASIZE PUSH1 0x3 NOT ADD SLT PUSH2 0x223 JUMPI PUSH2 0x23 PUSH1 0x4 CALLDATALOAD PUSH2 0x247 PUSH2 0x11CC JUMP JUMPDEST SWAP1 DUP1 PUSH1 0x0 MSTORE PUSH1 0x0 PUSH1 0x20 MSTORE PUSH2 0x262 PUSH1 0x1 PUSH1 0x40 PUSH1 0x0 KECCAK256 ADD SLOAD PUSH2 0x1447 JUMP JUMPDEST PUSH2 0x14EB JUMP JUMPDEST CALLVALUE PUSH2 0x223 JUMPI PUSH1 0x20 DUP1 PUSH1 0x3 NOT CALLDATASIZE ADD SLT PUSH2 0x223 JUMPI PUSH1 0x1 PUSH1 0x1 PUSH1 0xA0 SHL SUB DUP1 PUSH2 0x28A PUSH2 0x11B6 JUMP JUMPDEST AND PUSH1 0x0 MSTORE PUSH1 0x3 DUP3 MSTORE PUSH1 0x40 PUSH1 0x0 KECCAK256 PUSH1 0x40 MLOAD DUP1 DUP3 DUP6 DUP3 SWAP5 SLOAD SWAP4 DUP5 DUP2 MSTORE ADD SWAP1 PUSH1 0x0 MSTORE DUP6 PUSH1 0x0 KECCAK256 SWAP3 PUSH1 0x0 JUMPDEST DUP8 DUP3 DUP3 LT PUSH2 0x42C JUMPI POP POP POP PUSH2 0x2C8 SWAP3 POP SUB DUP3 PUSH2 0x12F8 JUMP JUMPDEST DUP1 MLOAD SWAP2 PUSH2 0x2D4 DUP4 PUSH2 0x187A JUMP JUMPDEST SWAP3 PUSH2 0x2E2 PUSH1 0x40 MLOAD SWAP5 DUP6 PUSH2 0x12F8 JUMP JUMPDEST DUP1 DUP5 MSTORE PUSH2 0x2F1 PUSH1 0x1F NOT SWAP2 PUSH2 0x187A JUMP JUMPDEST ADD DUP5 PUSH1 0x0 JUMPDEST DUP3 DUP2 LT PUSH2 0x3E5 JUMPI POP POP POP PUSH1 0x0 JUMPDEST DUP3 MLOAD DUP2 LT ISZERO PUSH2 0x365 JUMPI PUSH2 0x328 PUSH2 0x322 PUSH2 0x31C DUP4 DUP7 PUSH2 0x1892 JUMP JUMPDEST MLOAD PUSH2 0x1210 JUMP JUMPDEST POP PUSH2 0x1730 JUMP JUMPDEST PUSH2 0x332 DUP3 DUP7 PUSH2 0x1892 JUMP JUMPDEST MSTORE PUSH2 0x33D DUP2 DUP6 PUSH2 0x1892 JUMP JUMPDEST POP PUSH1 0x0 NOT DUP2 EQ PUSH2 0x34F JUMPI PUSH1 0x1 ADD PUSH2 0x303 JUMP JUMPDEST PUSH4 0x4E487B71 PUSH1 0xE0 SHL PUSH1 0x0 MSTORE PUSH1 0x11 PUSH1 0x4 MSTORE PUSH1 0x24 PUSH1 0x0 REVERT JUMPDEST POP DUP4 DUP4 PUSH1 0x40 MLOAD SWAP2 DUP1 DUP4 ADD DUP2 DUP5 MSTORE DUP3 MLOAD DUP1 SWAP2 MSTORE DUP2 PUSH1 0x40 DUP6 ADD SWAP4 ADD SWAP2 PUSH1 0x0 JUMPDEST DUP3 DUP2 LT PUSH2 0x38F JUMPI DUP6 DUP6 SUB DUP7 RETURN JUMPDEST DUP4 MLOAD DUP1 MLOAD DUP7 MSTORE DUP1 DUP4 ADD MLOAD DUP9 AND DUP7 DUP5 ADD MSTORE PUSH1 0x40 DUP1 DUP3 ADD MLOAD SWAP1 DUP8 ADD MSTORE PUSH1 0x60 DUP1 DUP3 ADD MLOAD SWAP1 DUP8 ADD MSTORE PUSH1 0x80 DUP1 DUP3 ADD MLOAD SWAP1 DUP8 ADD MSTORE PUSH1 0xA0 DUP1 DUP3 ADD MLOAD SWAP1 DUP8 ADD MSTORE PUSH1 0xC0 SWAP1 DUP2 ADD MLOAD ISZERO ISZERO SWAP1 DUP7 ADD MSTORE PUSH1 0xE0 SWAP1 SWAP5 ADD SWAP4 SWAP3 DUP2 ADD SWAP3 PUSH1 0x1 ADD PUSH2 0x382 JUMP JUMPDEST PUSH1 0x40 MLOAD PUSH2 0x3F1 DUP2 PUSH2 0x12DC JUMP JUMPDEST PUSH1 0x0 DUP2 MSTORE PUSH1 0x0 DUP4 DUP3 ADD MSTORE PUSH1 0x0 PUSH1 0x40 DUP3 ADD MSTORE PUSH1 0x0 PUSH1 0x60 DUP3 ADD MSTORE PUSH1 0x0 PUSH1 0x80 DUP3 ADD MSTORE PUSH1 0x0 PUSH1 0xA0 DUP3 ADD MSTORE PUSH1 0x0 PUSH1 0xC0 DUP3 ADD MSTORE DUP3 DUP3 DUP9 ADD ADD MSTORE ADD DUP6 SWAP1 PUSH2 0x2F6 JUMP JUMPDEST DUP6 SLOAD DUP5 MSTORE PUSH1 0x1 SWAP6 DUP7 ADD SWAP6 DUP8 SWAP6 POP SWAP4 ADD SWAP3 ADD PUSH2 0x2B1 JUMP JUMPDEST PUSH1 0x20 CALLDATASIZE PUSH1 0x3 NOT ADD SLT PUSH2 0x223 JUMPI PUSH1 0x4 CALLDATALOAD PUSH2 0x459 PUSH2 0x161C JUMP JUMPDEST PUSH1 0x1 SWAP1 PUSH2 0x468 DUP3 SLOAD DUP3 LT PUSH2 0x15DD JUMP JUMPDEST PUSH2 0x471 DUP2 PUSH2 0x124B JUMP JUMPDEST POP PUSH1 0xFF PUSH1 0x7 DUP3 ADD SLOAD AND ISZERO PUSH2 0x641 JUMPI PUSH1 0x5 DUP2 ADD SLOAD CALLVALUE LT PUSH2 0x60A JUMPI PUSH1 0x2 SLOAD SWAP1 PUSH1 0x40 MLOAD SWAP1 PUSH2 0x49B DUP3 PUSH2 0x12DC JUMP JUMPDEST DUP4 DUP3 MSTORE PUSH1 0x20 DUP3 ADD SWAP1 CALLER DUP3 MSTORE PUSH1 0x40 DUP4 ADD SWAP2 CALLVALUE DUP4 MSTORE PUSH1 0x60 DUP5 ADD TIMESTAMP DUP2 MSTORE PUSH1 0x80 DUP6 ADD SWAP5 TIMESTAMP DUP7 MSTORE PUSH1 0xA0 DUP2 ADD PUSH1 0x0 DUP2 MSTORE PUSH1 0xC0 DUP3 ADD SWAP1 DUP11 DUP3 MSTORE PUSH1 0x1 PUSH1 0x40 SHL SWAP8 DUP9 DUP11 LT ISZERO PUSH2 0x5DE JUMPI DUP12 DUP11 ADD PUSH1 0x2 SSTORE PUSH2 0x4EA DUP11 PUSH2 0x1210 JUMP JUMPDEST SWAP6 SWAP1 SWAP6 PUSH2 0x5F4 JUMPI PUSH1 0x3 SWAP9 PUSH2 0x54F SWAP8 DUP15 PUSH1 0x6 SWAP8 MLOAD DUP10 SSTORE DUP9 ADD SWAP1 PUSH1 0x1 DUP1 PUSH1 0xA0 SHL SUB SWAP1 MLOAD AND PUSH12 0xFFFFFFFFFFFFFFFFFFFFFFFF PUSH1 0xA0 SHL DUP3 SLOAD AND OR SWAP1 SSTORE MLOAD PUSH1 0x2 DUP8 ADD SSTORE MLOAD DUP9 DUP7 ADD SSTORE MLOAD PUSH1 0x4 DUP6 ADD SSTORE MLOAD PUSH1 0x5 DUP5 ADD SSTORE MLOAD ISZERO ISZERO SWAP2 ADD SWAP1 PUSH1 0xFF DUP1 NOT DUP4 SLOAD AND SWAP2 ISZERO ISZERO AND OR SWAP1 SSTORE JUMP JUMPDEST ADD PUSH2 0x55B CALLVALUE DUP3 SLOAD PUSH2 0x1560 JUMP JUMPDEST SWAP1 SSTORE CALLER PUSH1 0x0 MSTORE PUSH1 0x3 PUSH1 0x20 MSTORE PUSH1 0x40 PUSH1 0x0 KECCAK256 SWAP1 DUP2 SLOAD SWAP1 DUP2 LT ISZERO PUSH2 0x5DE JUMPI PUSH2 0x584 SWAP2 DUP6 DUP3 ADD DUP2 SSTORE PUSH2 0x11E2 JUMP JUMPDEST DUP2 SLOAD PUSH1 0x0 NOT PUSH1 0x3 SWAP3 SWAP1 SWAP3 SHL SWAP2 DUP3 SHL NOT AND SWAP1 DUP4 SWAP1 SHL OR SWAP1 SSTORE PUSH1 0x40 DUP1 MLOAD CALLER DUP2 MSTORE CALLVALUE PUSH1 0x20 DUP3 ADD MSTORE PUSH32 0xC49CABE9D2BBFEA8D9F51B0961C30A1081FF6FD3C4D6A9182CD65DE8CEA2DF00 SWAP2 SWAP1 LOG3 PUSH1 0x0 DUP1 MLOAD PUSH1 0x20 PUSH2 0x18A7 DUP4 CODECOPY DUP2 MLOAD SWAP2 MSTORE SSTORE STOP JUMPDEST PUSH4 0x4E487B71 PUSH1 0xE0 SHL PUSH1 0x0 MSTORE PUSH1 0x41 PUSH1 0x4 MSTORE PUSH1 0x24 PUSH1 0x0 REVERT JUMPDEST PUSH4 0x4E487B71 PUSH1 0xE0 SHL PUSH1 0x0 MSTORE PUSH1 0x0 PUSH1 0x4 MSTORE PUSH1 0x24 PUSH1 0x0 REVERT JUMPDEST PUSH1 0x40 MLOAD PUSH3 0x461BCD PUSH1 0xE5 SHL DUP2 MSTORE PUSH1 0x20 PUSH1 0x4 DUP3 ADD MSTORE PUSH1 0xF PUSH1 0x24 DUP3 ADD MSTORE PUSH15 0x42656C6F77206D696E207374616B65 PUSH1 0x88 SHL PUSH1 0x44 DUP3 ADD MSTORE PUSH1 0x64 SWAP1 REVERT JUMPDEST PUSH1 0x40 MLOAD PUSH3 0x461BCD PUSH1 0xE5 SHL DUP2 MSTORE PUSH1 0x20 PUSH1 0x4 DUP3 ADD MSTORE PUSH1 0x11 PUSH1 0x24 DUP3 ADD MSTORE PUSH17 0x537472617465677920696E616374697665 PUSH1 0x78 SHL PUSH1 0x44 DUP3 ADD MSTORE PUSH1 0x64 SWAP1 REVERT JUMPDEST CALLVALUE PUSH2 0x223 JUMPI PUSH1 0x0 CALLDATASIZE PUSH1 0x3 NOT ADD SLT PUSH2 0x223 JUMPI PUSH1 0x20 PUSH1 0x40 MLOAD PUSH1 0x0 DUP2 MSTORE RETURN JUMPDEST CALLVALUE PUSH2 0x223 JUMPI PUSH1 0x20 CALLDATASIZE PUSH1 0x3 NOT ADD SLT PUSH2 0x223 JUMPI PUSH1 0x4 CALLDATALOAD PUSH1 0x2 SLOAD DUP2 LT ISZERO PUSH2 0x223 JUMPI PUSH2 0x6BF PUSH1 0xE0 SWAP2 PUSH2 0x1210 JUMP JUMPDEST POP DUP1 SLOAD SWAP1 PUSH1 0x1 DUP1 PUSH1 0xA0 SHL SUB PUSH1 0x1 DUP3 ADD SLOAD AND SWAP1 PUSH1 0x2 DUP2 ADD SLOAD PUSH1 0x3 DUP3 ADD SLOAD PUSH1 0x4 DUP4 ADD SLOAD SWAP2 PUSH1 0xFF PUSH1 0x6 PUSH1 0x5 DUP7 ADD SLOAD SWAP6 ADD SLOAD AND SWAP5 PUSH1 0x40 MLOAD SWAP7 DUP8 MSTORE PUSH1 0x20 DUP8 ADD MSTORE PUSH1 0x40 DUP7 ADD MSTORE PUSH1 0x60 DUP6 ADD MSTORE PUSH1 0x80 DUP5 ADD MSTORE PUSH1 0xA0 DUP4 ADD MSTORE ISZERO ISZERO PUSH1 0xC0 DUP3 ADD MSTORE RETURN JUMPDEST CALLVALUE PUSH2 0x223 JUMPI PUSH1 0x40 CALLDATASIZE PUSH1 0x3 NOT ADD SLT PUSH2 0x223 JUMPI PUSH2 0x730 PUSH2 0x11CC JUMP JUMPDEST PUSH1 0x4 CALLDATALOAD PUSH1 0x0 MSTORE PUSH1 0x0 PUSH1 0x20 MSTORE PUSH1 0x40 PUSH1 0x0 KECCAK256 SWAP1 PUSH1 0x1 DUP1 PUSH1 0xA0 SHL SUB AND PUSH1 0x0 MSTORE PUSH1 0x20 MSTORE PUSH1 0x20 PUSH1 0xFF PUSH1 0x40 PUSH1 0x0 KECCAK256 SLOAD AND PUSH1 0x40 MLOAD SWAP1 ISZERO ISZERO DUP2 MSTORE RETURN JUMPDEST CALLVALUE PUSH2 0x223 JUMPI PUSH1 0x0 CALLDATASIZE PUSH1 0x3 NOT ADD SLT PUSH2 0x223 JUMPI PUSH1 0x20 PUSH1 0x4 SLOAD PUSH1 0x40 MLOAD SWAP1 DUP2 MSTORE RETURN JUMPDEST CALLVALUE PUSH2 0x223 JUMPI PUSH1 0x0 CALLDATASIZE PUSH1 0x3 NOT ADD SLT PUSH2 0x223 JUMPI PUSH1 0x20 PUSH1 0x2 SLOAD PUSH1 0x40 MLOAD SWAP1 DUP2 MSTORE RETURN JUMPDEST CALLVALUE PUSH2 0x223 JUMPI PUSH1 0x20 CALLDATASIZE PUSH1 0x3 NOT ADD SLT PUSH2 0x223 JUMPI PUSH1 0x20 PUSH2 0x7BE PUSH1 0x4 CALLDATALOAD PUSH2 0x17A1 JUMP JUMPDEST PUSH1 0x40 MLOAD SWAP1 DUP2 MSTORE RETURN JUMPDEST CALLVALUE PUSH2 0x223 JUMPI PUSH1 0x0 CALLDATASIZE PUSH1 0x3 NOT ADD SLT PUSH2 0x223 JUMPI PUSH1 0x20 PUSH1 0x40 MLOAD PUSH32 0xA3C6206D9C0454367619008E1A198954846F9C236C64D4CE0D3E2D1F11C3165 DUP2 MSTORE RETURN JUMPDEST CALLVALUE PUSH2 0x223 JUMPI PUSH1 0x40 CALLDATASIZE PUSH1 0x3 NOT ADD SLT PUSH2 0x223 JUMPI PUSH2 0x81A PUSH2 0x11B6 JUMP JUMPDEST PUSH1 0x1 PUSH1 0x1 PUSH1 0xA0 SHL SUB AND PUSH1 0x0 SWAP1 DUP2 MSTORE PUSH1 0x3 PUSH1 0x20 MSTORE PUSH1 0x40 SWAP1 KECCAK256 DUP1 SLOAD PUSH1 0x24 CALLDATALOAD SWAP2 SWAP1 DUP3 LT ISZERO PUSH2 0x223 JUMPI PUSH1 0x20 SWAP2 PUSH2 0x84B SWAP2 PUSH2 0x11E2 JUMP JUMPDEST SWAP1 SLOAD SWAP1 PUSH1 0x3 SHL SHR PUSH1 0x40 MLOAD SWAP1 DUP2 MSTORE RETURN JUMPDEST CALLVALUE PUSH2 0x223 JUMPI PUSH1 0x60 CALLDATASIZE PUSH1 0x3 NOT ADD SLT PUSH2 0x223 JUMPI PUSH1 0x4 CALLDATALOAD PUSH1 0x24 CALLDATALOAD PUSH1 0x44 CALLDATALOAD DUP1 ISZERO ISZERO SWAP2 DUP3 DUP3 SUB PUSH2 0x223 JUMPI PUSH32 0x9502B96AE761FBC05FA843257169BFD18E3E1F737A419C61F3DA2A1A501689F9 SWAP3 PUSH2 0x8E9 PUSH1 0x40 SWAP4 PUSH2 0x8AF PUSH2 0x13CD JUMP JUMPDEST PUSH2 0x8BC PUSH1 0x1 SLOAD DUP9 LT PUSH2 0x15DD JUMP JUMPDEST DUP4 PUSH1 0x2 PUSH2 0x8C8 DUP10 PUSH2 0x124B JUMP JUMPDEST POP ADD SSTORE PUSH1 0x7 PUSH2 0x8D6 DUP9 PUSH2 0x124B JUMP JUMPDEST POP ADD SWAP1 PUSH1 0xFF DUP1 NOT DUP4 SLOAD AND SWAP2 ISZERO ISZERO AND OR SWAP1 SSTORE JUMP JUMPDEST DUP3 MLOAD SWAP2 DUP3 MSTORE PUSH1 0x20 DUP3 ADD MSTORE LOG2 STOP JUMPDEST CALLVALUE PUSH2 0x223 JUMPI PUSH1 0x20 CALLDATASIZE PUSH1 0x3 NOT ADD SLT PUSH2 0x223 JUMPI PUSH1 0x4 CALLDATALOAD PUSH2 0x912 PUSH2 0x161C JUMP JUMPDEST PUSH2 0x91B DUP2 PUSH2 0x1210 JUMP JUMPDEST POP PUSH2 0x933 PUSH1 0x1 DUP1 PUSH1 0xA0 SHL SUB PUSH1 0x1 DUP4 ADD SLOAD AND CALLER EQ PUSH2 0x164C JUMP JUMPDEST PUSH2 0x943 PUSH1 0xFF PUSH1 0x6 DUP4 ADD SLOAD AND PUSH2 0x1684 JUMP JUMPDEST PUSH2 0x94C DUP3 PUSH2 0x17A1 JUMP JUMPDEST SWAP1 DUP2 ISZERO PUSH2 0xA4D JUMPI DUP2 PUSH1 0x4 SLOAD LT PUSH2 0xA08 JUMPI PUSH32 0x1448CB68839238FD008ABE5BAD73D996F9849E020313466FA9F3476D98006DF2 SWAP2 PUSH1 0x4 PUSH2 0x9B0 PUSH2 0x9F1 SWAP4 TIMESTAMP DUP4 DUP3 ADD SSTORE PUSH1 0x5 DUP2 ADD PUSH2 0x99B DUP6 DUP3 SLOAD PUSH2 0x1560 JUMP JUMPDEST SWAP1 SSTORE PUSH2 0x9A8 DUP5 DUP5 SLOAD PUSH2 0x15D0 JUMP JUMPDEST DUP4 SSTORE SLOAD PUSH2 0x124B JUMP JUMPDEST POP ADD PUSH2 0x9BD DUP3 DUP3 SLOAD PUSH2 0x1560 JUMP JUMPDEST SWAP1 SSTORE PUSH2 0x9D9 PUSH1 0x0 DUP1 DUP1 DUP1 DUP6 CALLER GAS CALL PUSH2 0x9D3 PUSH2 0x16C2 JUMP JUMPDEST POP PUSH2 0x16F2 JUMP JUMPDEST PUSH1 0x40 DUP1 MLOAD CALLER DUP2 MSTORE PUSH1 0x20 DUP2 ADD SWAP3 SWAP1 SWAP3 MSTORE SWAP1 SWAP2 DUP3 SWAP2 DUP3 ADD SWAP1 JUMP JUMPDEST SUB SWAP1 LOG2 PUSH1 0x1 PUSH1 0x0 DUP1 MLOAD PUSH1 0x20 PUSH2 0x18A7 DUP4 CODECOPY DUP2 MLOAD SWAP2 MSTORE SSTORE STOP JUMPDEST PUSH1 0x40 MLOAD PUSH3 0x461BCD PUSH1 0xE5 SHL DUP2 MSTORE PUSH1 0x20 PUSH1 0x4 DUP3 ADD MSTORE PUSH1 0x17 PUSH1 0x24 DUP3 ADD MSTORE PUSH32 0x496E73756666696369656E74207969656C6420706F6F6C000000000000000000 PUSH1 0x44 DUP3 ADD MSTORE PUSH1 0x64 SWAP1 REVERT JUMPDEST PUSH1 0x40 MLOAD PUSH3 0x461BCD PUSH1 0xE5 SHL DUP2 MSTORE PUSH1 0x20 PUSH1 0x4 DUP3 ADD MSTORE PUSH1 0x8 PUSH1 0x24 DUP3 ADD MSTORE PUSH8 0x139BC81E5A595B19 PUSH1 0xC2 SHL PUSH1 0x44 DUP3 ADD MSTORE PUSH1 0x64 SWAP1 REVERT JUMPDEST CALLVALUE PUSH2 0x223 JUMPI PUSH1 0x40 CALLDATASIZE PUSH1 0x3 NOT ADD SLT PUSH2 0x223 JUMPI PUSH2 0xA96 PUSH2 0x11CC JUMP JUMPDEST CALLER PUSH1 0x1 PUSH1 0x1 PUSH1 0xA0 SHL SUB DUP3 AND SUB PUSH2 0xAB2 JUMPI PUSH2 0x23 SWAP1 PUSH1 0x4 CALLDATALOAD PUSH2 0x14EB JUMP JUMPDEST PUSH1 0x40 MLOAD PUSH4 0x334BD919 PUSH1 0xE1 SHL DUP2 MSTORE PUSH1 0x4 SWAP1 REVERT JUMPDEST CALLVALUE PUSH2 0x223 JUMPI PUSH1 0x0 CALLDATASIZE PUSH1 0x3 NOT ADD SLT PUSH2 0x223 JUMPI PUSH1 0x20 PUSH1 0x1 SLOAD PUSH1 0x40 MLOAD SWAP1 DUP2 MSTORE RETURN JUMPDEST CALLVALUE PUSH2 0x223 JUMPI PUSH1 0x40 CALLDATASIZE PUSH1 0x3 NOT ADD SLT PUSH2 0x223 JUMPI PUSH2 0x23 PUSH1 0x4 CALLDATALOAD PUSH2 0xB01 PUSH2 0x11CC JUMP JUMPDEST SWAP1 DUP1 PUSH1 0x0 MSTORE PUSH1 0x0 PUSH1 0x20 MSTORE PUSH2 0xB1C PUSH1 0x1 PUSH1 0x40 PUSH1 0x0 KECCAK256 ADD SLOAD PUSH2 0x1447 JUMP JUMPDEST PUSH2 0x146D JUMP JUMPDEST CALLVALUE PUSH2 0x223 JUMPI PUSH1 0x20 CALLDATASIZE PUSH1 0x3 NOT ADD SLT PUSH2 0x223 JUMPI PUSH1 0x4 CALLDATALOAD PUSH2 0xB3D PUSH2 0x161C JUMP JUMPDEST PUSH2 0xB46 DUP2 PUSH2 0x1210 JUMP JUMPDEST POP PUSH2 0xB5E PUSH1 0x1 DUP1 PUSH1 0xA0 SHL SUB PUSH1 0x1 DUP4 ADD SLOAD AND CALLER EQ PUSH2 0x164C JUMP JUMPDEST PUSH1 0x6 DUP2 ADD SWAP1 DUP3 DUP3 SLOAD SWAP3 PUSH2 0xB73 PUSH1 0xFF DUP6 AND PUSH2 0x1684 JUMP JUMPDEST PUSH2 0xB7D DUP4 SLOAD PUSH2 0x124B JUMP JUMPDEST POP PUSH1 0x6 DUP2 ADD SLOAD DUP1 PUSH2 0xCC9 JUMPI JUMPDEST POP PUSH32 0x37375B03D8924BD8F076F11F8411B9962AA5C02FB489021507BC6BB6F850E365 SWAP2 PUSH2 0xC55 SWAP2 PUSH2 0xBB9 DUP6 PUSH2 0x17A1 JUMP JUMPDEST SWAP7 DUP8 SWAP2 PUSH1 0x2 DUP9 ADD SWAP4 DUP5 SLOAD SWAP1 PUSH2 0xBCE DUP6 DUP4 PUSH2 0x1560 JUMP JUMPDEST SWAP4 PUSH1 0xFF NOT AND SWAP1 SSTORE PUSH2 0xBE4 PUSH1 0x3 DUP4 ADD SWAP2 DUP3 SLOAD PUSH2 0x15D0 JUMP JUMPDEST SWAP1 SSTORE DUP3 ISZERO ISZERO SWAP8 DUP9 DUP1 PUSH2 0xCBD JUMPI JUMPDEST ISZERO PUSH2 0xCAA JUMPI PUSH1 0x0 DUP1 SWAP4 PUSH1 0x5 DUP3 SWAP5 SWAP4 DUP8 PUSH2 0xC20 PUSH1 0x4 DUP7 SWAP8 PUSH2 0xC15 PUSH2 0xC3C SWAP13 DUP4 SLOAD PUSH2 0x15D0 JUMP JUMPDEST DUP3 SSTORE ADD SWAP2 DUP3 SLOAD PUSH2 0x1560 JUMP JUMPDEST SWAP1 SSTORE ADD PUSH2 0xC2E DUP14 DUP3 SLOAD PUSH2 0x1560 JUMP JUMPDEST SWAP1 SSTORE JUMPDEST CALLER GAS CALL PUSH2 0x9D3 PUSH2 0x16C2 JUMP JUMPDEST SLOAD PUSH1 0x40 DUP1 MLOAD CALLER DUP2 MSTORE PUSH1 0x20 DUP2 ADD SWAP3 SWAP1 SWAP3 MSTORE SWAP1 SWAP2 DUP3 SWAP2 DUP3 ADD SWAP1 JUMP JUMPDEST SUB SWAP1 LOG2 PUSH2 0xC71 JUMPI JUMPDEST PUSH1 0x1 PUSH1 0x0 DUP1 MLOAD PUSH1 0x20 PUSH2 0x18A7 DUP4 CODECOPY DUP2 MLOAD SWAP2 MSTORE SSTORE STOP JUMPDEST PUSH1 0x40 DUP1 MLOAD CALLER DUP2 MSTORE PUSH1 0x20 DUP2 ADD SWAP3 SWAP1 SWAP3 MSTORE PUSH32 0x1448CB68839238FD008ABE5BAD73D996F9849E020313466FA9F3476D98006DF2 SWAP2 LOG2 DUP1 DUP1 PUSH2 0xC5D JUMP JUMPDEST POP POP POP POP PUSH2 0xC3C PUSH1 0x0 DUP1 DUP1 DUP1 DUP6 SLOAD PUSH2 0xC31 JUMP JUMPDEST POP DUP4 PUSH1 0x4 SLOAD LT ISZERO PUSH2 0xBF1 JUMP JUMPDEST PUSH2 0xCD9 SWAP2 SWAP4 POP PUSH1 0x3 DUP6 ADD SLOAD PUSH2 0x1560 JUMP JUMPDEST TIMESTAMP LT PUSH2 0xCE7 JUMPI DUP5 SWAP2 DUP7 PUSH2 0xB89 JUMP JUMPDEST PUSH1 0x40 MLOAD PUSH3 0x461BCD PUSH1 0xE5 SHL DUP2 MSTORE PUSH1 0x20 PUSH1 0x4 DUP3 ADD MSTORE PUSH1 0xB PUSH1 0x24 DUP3 ADD MSTORE PUSH11 0x4C6F636B20616374697665 PUSH1 0xA8 SHL PUSH1 0x44 DUP3 ADD MSTORE PUSH1 0x64 SWAP1 REVERT JUMPDEST CALLVALUE PUSH2 0x223 JUMPI PUSH1 0x20 DUP1 PUSH1 0x3 NOT CALLDATASIZE ADD SLT PUSH2 0x223 JUMPI PUSH1 0x1 PUSH1 0x1 PUSH1 0xA0 SHL SUB PUSH2 0xD3C PUSH2 0x11B6 JUMP JUMPDEST AND PUSH1 0x0 MSTORE PUSH1 0x3 DUP2 MSTORE PUSH1 0x40 PUSH1 0x0 KECCAK256 PUSH1 0x40 MLOAD SWAP1 DUP2 DUP4 DUP3 SLOAD SWAP2 DUP3 DUP2 MSTORE ADD SWAP1 DUP2 SWAP3 PUSH1 0x0 MSTORE DUP5 PUSH1 0x0 KECCAK256 SWAP1 PUSH1 0x0 JUMPDEST DUP7 DUP3 DUP3 LT PUSH2 0xDBA JUMPI DUP7 DUP7 PUSH2 0xD7A DUP3 DUP9 SUB DUP4 PUSH2 0x12F8 JUMP JUMPDEST PUSH1 0x40 MLOAD SWAP3 DUP4 SWAP3 DUP2 DUP5 ADD SWAP1 DUP3 DUP6 MSTORE MLOAD DUP1 SWAP2 MSTORE PUSH1 0x40 DUP5 ADD SWAP3 SWAP2 PUSH1 0x0 JUMPDEST DUP3 DUP2 LT PUSH2 0xDA3 JUMPI POP POP POP POP SUB SWAP1 RETURN JUMPDEST DUP4 MLOAD DUP6 MSTORE DUP7 SWAP6 POP SWAP4 DUP2 ADD SWAP4 SWAP3 DUP2 ADD SWAP3 PUSH1 0x1 ADD PUSH2 0xD94 JUMP JUMPDEST DUP4 SLOAD DUP6 MSTORE SWAP1 SWAP4 ADD SWAP3 PUSH1 0x1 SWAP3 DUP4 ADD SWAP3 ADD PUSH2 0xD64 JUMP JUMPDEST CALLVALUE PUSH2 0x223 JUMPI PUSH1 0x20 CALLDATASIZE PUSH1 0x3 NOT ADD SLT PUSH2 0x223 JUMPI PUSH1 0x4 CALLDATALOAD PUSH1 0x0 MSTORE PUSH1 0x0 PUSH1 0x20 MSTORE PUSH1 0x20 PUSH1 0x1 PUSH1 0x40 PUSH1 0x0 KECCAK256 ADD SLOAD PUSH1 0x40 MLOAD SWAP1 DUP2 MSTORE RETURN JUMPDEST CALLVALUE PUSH2 0x223 JUMPI PUSH1 0xC0 CALLDATASIZE PUSH1 0x3 NOT ADD SLT PUSH2 0x223 JUMPI PUSH8 0xFFFFFFFFFFFFFFFF PUSH1 0x4 CALLDATALOAD DUP2 DUP2 GT PUSH2 0x223 JUMPI CALLDATASIZE PUSH1 0x23 DUP3 ADD SLT ISZERO PUSH2 0x223 JUMPI DUP2 DUP2 PUSH1 0x4 ADD CALLDATALOAD GT PUSH2 0x223 JUMPI CALLDATASIZE PUSH1 0x24 DUP3 PUSH1 0x4 ADD CALLDATALOAD DUP4 ADD ADD GT PUSH2 0x223 JUMPI PUSH1 0x4 PUSH1 0x24 CALLDATALOAD LT ISZERO PUSH2 0x223 JUMPI PUSH1 0x44 CALLDATALOAD PUSH1 0x1 PUSH1 0x1 PUSH1 0xA0 SHL SUB DUP2 AND SWAP1 DUP2 SWAP1 SUB PUSH2 0x223 JUMPI PUSH2 0xE6F PUSH2 0x13CD JUMP JUMPDEST PUSH1 0x40 MLOAD SWAP1 PUSH2 0xE7C DUP3 PUSH2 0x12BF JUMP JUMPDEST PUSH2 0xE89 DUP4 PUSH1 0x4 ADD CALLDATALOAD PUSH2 0x15A8 JUMP JUMPDEST PUSH2 0xE96 PUSH1 0x40 MLOAD SWAP2 DUP3 PUSH2 0x12F8 JUMP JUMPDEST PUSH1 0x4 DUP5 ADD CALLDATALOAD DUP1 DUP3 MSTORE PUSH1 0x24 DUP6 ADD PUSH1 0x20 DUP4 ADD CALLDATACOPY PUSH1 0x0 PUSH1 0x20 DUP6 PUSH1 0x4 ADD CALLDATALOAD DUP4 ADD ADD MSTORE DUP3 MSTORE PUSH2 0xEC5 PUSH1 0x24 CALLDATALOAD PUSH1 0x20 DUP5 ADD PUSH2 0x15C4 JUMP JUMPDEST PUSH1 0x40 DUP3 ADD MSTORE PUSH1 0x64 CALLDATALOAD PUSH1 0x60 DUP3 ADD MSTORE PUSH1 0x0 PUSH1 0x80 DUP3 ADD MSTORE PUSH1 0x0 PUSH1 0xA0 DUP3 ADD MSTORE PUSH1 0x84 CALLDATALOAD PUSH1 0xC0 DUP3 ADD MSTORE PUSH1 0xA4 CALLDATALOAD PUSH1 0xE0 DUP3 ADD MSTORE PUSH1 0x1 PUSH2 0x100 DUP3 ADD MSTORE PUSH1 0x1 SLOAD PUSH1 0x1 PUSH1 0x40 SHL DUP2 LT ISZERO PUSH2 0x5DE JUMPI DUP1 PUSH1 0x1 PUSH2 0xF17 SWAP3 ADD PUSH1 0x1 SSTORE PUSH2 0x124B JUMP JUMPDEST PUSH2 0x5F4 JUMPI DUP2 MLOAD SWAP4 DUP5 MLOAD SWAP1 DUP2 GT PUSH2 0x5DE JUMPI PUSH2 0xF31 DUP3 SLOAD PUSH2 0x1285 JUMP JUMPDEST PUSH1 0x1F DUP2 GT PUSH2 0x110B JUMPI JUMPDEST POP PUSH1 0x20 PUSH1 0x1F DUP3 GT PUSH1 0x1 EQ PUSH2 0x10A2 JUMPI DUP2 SWAP3 SWAP4 SWAP5 SWAP6 PUSH1 0x0 SWAP3 PUSH2 0x1097 JUMPI JUMPDEST POP POP DUP2 PUSH1 0x1 SHL SWAP2 PUSH1 0x0 NOT SWAP1 PUSH1 0x3 SHL SHR NOT AND OR DUP2 SSTORE JUMPDEST PUSH1 0x20 DUP3 ADD MLOAD SWAP2 PUSH1 0x4 DUP4 LT ISZERO PUSH2 0x1081 JUMPI PUSH1 0x1 DUP3 ADD DUP1 SLOAD PUSH1 0x40 DUP4 ADD MLOAD PUSH2 0x100 PUSH1 0x1 PUSH1 0xA8 SHL SUB PUSH1 0x8 SWAP2 SWAP1 SWAP2 SHL AND PUSH1 0xFF SWAP6 DUP7 AND PUSH1 0x1 PUSH1 0x1 PUSH1 0xA8 SHL SUB NOT SWAP1 SWAP3 AND SWAP2 SWAP1 SWAP2 OR OR SWAP1 SSTORE PUSH1 0x60 DUP2 ADD MLOAD PUSH1 0x2 DUP4 ADD SSTORE PUSH1 0x80 DUP2 ADD MLOAD PUSH1 0x3 DUP4 ADD SSTORE PUSH1 0xA0 DUP2 ADD MLOAD PUSH1 0x4 DUP4 ADD SSTORE PUSH1 0xC0 DUP2 ADD MLOAD PUSH1 0x5 DUP4 ADD SSTORE PUSH1 0xE0 DUP2 ADD MLOAD PUSH1 0x6 DUP4 ADD SSTORE PUSH2 0x100 ADD MLOAD PUSH1 0x7 SWAP1 SWAP2 ADD DUP1 SLOAD PUSH1 0xFF NOT AND SWAP2 ISZERO ISZERO SWAP1 SWAP3 AND OR SWAP1 SSTORE PUSH1 0x1 SLOAD PUSH1 0x0 NOT DUP2 ADD SWAP2 SWAP1 DUP3 GT PUSH2 0x34F JUMPI PUSH32 0xE609F9B4EF0C6C3298BA910CD98C7104CF40558DBFE77113C10BBB478724C32F SWAP1 PUSH1 0x80 PUSH1 0x40 MLOAD DUP1 SWAP3 PUSH1 0x60 DUP3 MSTORE DUP1 PUSH1 0x4 ADD CALLDATALOAD PUSH1 0x60 DUP4 ADD MSTORE DUP1 PUSH1 0x4 ADD CALLDATALOAD PUSH1 0x24 DUP3 ADD DUP5 DUP5 ADD CALLDATACOPY PUSH1 0x0 DUP4 DUP3 PUSH1 0x4 ADD CALLDATALOAD DUP5 ADD ADD MSTORE PUSH2 0x1066 PUSH1 0x20 DUP4 ADD PUSH1 0x24 CALLDATALOAD PUSH2 0x13C0 JUMP JUMPDEST PUSH1 0x64 CALLDATALOAD PUSH1 0x40 DUP4 ADD MSTORE PUSH1 0x4 ADD CALLDATALOAD PUSH1 0x1F ADD PUSH1 0x1F NOT AND DUP2 ADD SUB ADD SWAP1 LOG2 STOP JUMPDEST PUSH4 0x4E487B71 PUSH1 0xE0 SHL PUSH1 0x0 MSTORE PUSH1 0x21 PUSH1 0x4 MSTORE PUSH1 0x24 PUSH1 0x0 REVERT JUMPDEST ADD MLOAD SWAP1 POP DUP6 DUP1 PUSH2 0xF55 JUMP JUMPDEST DUP3 PUSH1 0x0 MSTORE PUSH1 0x20 PUSH1 0x0 KECCAK256 SWAP1 PUSH1 0x0 JUMPDEST PUSH1 0x1F NOT DUP5 AND DUP2 LT PUSH2 0x10F3 JUMPI POP PUSH1 0x1 SWAP4 SWAP5 SWAP6 SWAP7 DUP4 PUSH1 0x1F NOT DUP2 AND LT PUSH2 0x10DA JUMPI JUMPDEST POP POP POP DUP2 SHL ADD DUP2 SSTORE PUSH2 0xF6A JUMP JUMPDEST ADD MLOAD PUSH1 0x0 NOT PUSH1 0xF8 DUP5 PUSH1 0x3 SHL AND SHR NOT AND SWAP1 SSTORE DUP6 DUP1 DUP1 PUSH2 0x10CD JUMP JUMPDEST SWAP1 SWAP2 PUSH1 0x20 PUSH1 0x1 DUP2 SWAP3 DUP6 DUP12 ADD MLOAD DUP2 SSTORE ADD SWAP4 ADD SWAP2 ADD PUSH2 0x10AF JUMP JUMPDEST DUP3 PUSH1 0x0 MSTORE PUSH1 0x20 PUSH1 0x0 KECCAK256 PUSH1 0x1F DUP4 ADD PUSH1 0x5 SHR DUP2 ADD PUSH1 0x20 DUP5 LT PUSH2 0x1148 JUMPI JUMPDEST PUSH1 0x1F DUP4 ADD PUSH1 0x5 SHR DUP3 ADD DUP2 LT PUSH2 0x113C JUMPI POP POP PUSH2 0xF3A JUMP JUMPDEST PUSH1 0x0 DUP2 SSTORE PUSH1 0x1 ADD PUSH2 0x1126 JUMP JUMPDEST POP DUP1 PUSH2 0x1126 JUMP JUMPDEST PUSH1 0x0 CALLDATASIZE PUSH1 0x3 NOT ADD SLT PUSH2 0x223 JUMPI PUSH2 0x1B PUSH2 0x13CD JUMP JUMPDEST CALLVALUE PUSH2 0x223 JUMPI PUSH1 0x20 CALLDATASIZE PUSH1 0x3 NOT ADD SLT PUSH2 0x223 JUMPI PUSH1 0x4 CALLDATALOAD SWAP1 PUSH4 0xFFFFFFFF PUSH1 0xE0 SHL DUP3 AND DUP1 SWAP3 SUB PUSH2 0x223 JUMPI PUSH1 0x20 SWAP2 PUSH4 0x7965DB0B PUSH1 0xE0 SHL DUP2 EQ SWAP1 DUP2 ISZERO PUSH2 0x11A5 JUMPI JUMPDEST POP ISZERO ISZERO DUP2 MSTORE RETURN JUMPDEST PUSH4 0x1FFC9A7 PUSH1 0xE0 SHL EQ SWAP1 POP DUP4 PUSH2 0x119E JUMP JUMPDEST PUSH1 0x4 CALLDATALOAD SWAP1 PUSH1 0x1 PUSH1 0x1 PUSH1 0xA0 SHL SUB DUP3 AND DUP3 SUB PUSH2 0x223 JUMPI JUMP JUMPDEST PUSH1 0x24 CALLDATALOAD SWAP1 PUSH1 0x1 PUSH1 0x1 PUSH1 0xA0 SHL SUB DUP3 AND DUP3 SUB PUSH2 0x223 JUMPI JUMP JUMPDEST DUP1 SLOAD DUP3 LT ISZERO PUSH2 0x11FA JUMPI PUSH1 0x0 MSTORE PUSH1 0x20 PUSH1 0x0 KECCAK256 ADD SWAP1 PUSH1 0x0 SWAP1 JUMP JUMPDEST PUSH4 0x4E487B71 PUSH1 0xE0 SHL PUSH1 0x0 MSTORE PUSH1 0x32 PUSH1 0x4 MSTORE PUSH1 0x24 PUSH1 0x0 REVERT JUMPDEST PUSH1 0x2 SLOAD DUP2 LT ISZERO PUSH2 0x11FA JUMPI PUSH1 0x7 SWAP1 PUSH1 0x2 PUSH1 0x0 MSTORE MUL PUSH32 0x405787FA12A823E0F2B7631CC41B3BA8828B3321CA811111FA75CD3AA3BB5ACE ADD SWAP1 PUSH1 0x0 SWAP1 JUMP JUMPDEST PUSH1 0x1 SLOAD DUP2 LT ISZERO PUSH2 0x11FA JUMPI PUSH1 0x1 PUSH1 0x0 MSTORE PUSH1 0x3 SHL PUSH32 0xB10E2D527612073B26EECDFD717E6A320CF44B4AFAC2B0732D9FCBE2B7FA0CF6 ADD SWAP1 PUSH1 0x0 SWAP1 JUMP JUMPDEST SWAP1 PUSH1 0x1 DUP3 DUP2 SHR SWAP3 AND DUP1 ISZERO PUSH2 0x12B5 JUMPI JUMPDEST PUSH1 0x20 DUP4 LT EQ PUSH2 0x129F JUMPI JUMP JUMPDEST PUSH4 0x4E487B71 PUSH1 0xE0 SHL PUSH1 0x0 MSTORE PUSH1 0x22 PUSH1 0x4 MSTORE PUSH1 0x24 PUSH1 0x0 REVERT JUMPDEST SWAP2 PUSH1 0x7F AND SWAP2 PUSH2 0x1294 JUMP JUMPDEST PUSH2 0x120 DUP2 ADD SWAP1 DUP2 LT PUSH8 0xFFFFFFFFFFFFFFFF DUP3 GT OR PUSH2 0x5DE JUMPI PUSH1 0x40 MSTORE JUMP JUMPDEST PUSH1 0xE0 DUP2 ADD SWAP1 DUP2 LT PUSH8 0xFFFFFFFFFFFFFFFF DUP3 GT OR PUSH2 0x5DE JUMPI PUSH1 0x40 MSTORE JUMP JUMPDEST SWAP1 PUSH1 0x1F DUP1 NOT SWAP2 ADD AND DUP2 ADD SWAP1 DUP2 LT PUSH8 0xFFFFFFFFFFFFFFFF DUP3 GT OR PUSH2 0x5DE JUMPI PUSH1 0x40 MSTORE JUMP JUMPDEST SWAP1 PUSH1 0x40 MLOAD SWAP2 DUP3 PUSH1 0x0 DUP3 SLOAD SWAP3 PUSH2 0x132E DUP5 PUSH2 0x1285 JUMP JUMPDEST SWAP1 DUP2 DUP5 MSTORE PUSH1 0x1 SWAP5 DUP6 DUP2 AND SWAP1 DUP2 PUSH1 0x0 EQ PUSH2 0x139D JUMPI POP PUSH1 0x1 EQ PUSH2 0x135A JUMPI JUMPDEST POP POP PUSH2 0x1358 SWAP3 POP SUB DUP4 PUSH2 0x12F8 JUMP JUMPDEST JUMP JUMPDEST SWAP1 SWAP4 SWAP2 POP PUSH1 0x0 MSTORE PUSH1 0x20 SWAP1 DUP2 PUSH1 0x0 KECCAK256 SWAP4 PUSH1 0x0 SWAP2 JUMPDEST DUP2 DUP4 LT PUSH2 0x1385 JUMPI POP POP PUSH2 0x1358 SWAP4 POP DUP3 ADD ADD CODESIZE DUP1 PUSH2 0x134A JUMP JUMPDEST DUP6 SLOAD DUP9 DUP5 ADD DUP6 ADD MSTORE SWAP5 DUP6 ADD SWAP5 DUP8 SWAP5 POP SWAP2 DUP4 ADD SWAP2 PUSH2 0x136D JUMP JUMPDEST SWAP2 POP POP PUSH2 0x1358 SWAP5 POP PUSH1 0x20 SWAP3 POP PUSH1 0xFF NOT AND DUP3 DUP5 ADD MSTORE ISZERO ISZERO PUSH1 0x5 SHL DUP3 ADD ADD CODESIZE DUP1 PUSH2 0x134A JUMP JUMPDEST SWAP1 PUSH1 0x4 DUP3 LT ISZERO PUSH2 0x1081 JUMPI MSTORE JUMP JUMPDEST CALLER PUSH1 0x0 SWAP1 DUP2 MSTORE PUSH32 0x723EFAEED11DA5672966B7048FD8BD0986C1AEC775AA9C00248A7065ADDC9621 PUSH1 0x20 MSTORE PUSH1 0x40 SWAP1 KECCAK256 SLOAD PUSH32 0xA3C6206D9C0454367619008E1A198954846F9C236C64D4CE0D3E2D1F11C3165 SWAP1 PUSH1 0xFF AND ISZERO PUSH2 0x1429 JUMPI POP JUMP JUMPDEST PUSH1 0x44 SWAP1 PUSH1 0x40 MLOAD SWAP1 PUSH4 0xE2517D3F PUSH1 0xE0 SHL DUP3 MSTORE CALLER PUSH1 0x4 DUP4 ADD MSTORE PUSH1 0x24 DUP3 ADD MSTORE REVERT JUMPDEST DUP1 PUSH1 0x0 MSTORE PUSH1 0x0 PUSH1 0x20 MSTORE PUSH1 0x40 PUSH1 0x0 KECCAK256 CALLER PUSH1 0x0 MSTORE PUSH1 0x20 MSTORE PUSH1 0xFF PUSH1 0x40 PUSH1 0x0 KECCAK256 SLOAD AND ISZERO PUSH2 0x1429 JUMPI POP JUMP JUMPDEST SWAP1 PUSH1 0x0 SWAP2 DUP1 DUP4 MSTORE DUP3 PUSH1 0x20 MSTORE PUSH1 0x40 DUP4 KECCAK256 SWAP2 PUSH1 0x1 DUP1 PUSH1 0xA0 SHL SUB AND SWAP2 DUP3 DUP5 MSTORE PUSH1 0x20 MSTORE PUSH1 0xFF PUSH1 0x40 DUP5 KECCAK256 SLOAD AND ISZERO PUSH1 0x0 EQ PUSH2 0x14E6 JUMPI DUP1 DUP4 MSTORE DUP3 PUSH1 0x20 MSTORE PUSH1 0x40 DUP4 KECCAK256 DUP3 DUP5 MSTORE PUSH1 0x20 MSTORE PUSH1 0x40 DUP4 KECCAK256 PUSH1 0x1 PUSH1 0xFF NOT DUP3 SLOAD AND OR SWAP1 SSTORE PUSH32 0x2F8788117E7EFF1D82E926EC794901D17C78024A50270940304540A733656F0D CALLER SWAP4 DUP1 LOG4 PUSH1 0x1 SWAP1 JUMP JUMPDEST POP POP SWAP1 JUMP JUMPDEST SWAP1 PUSH1 0x0 SWAP2 DUP1 DUP4 MSTORE DUP3 PUSH1 0x20 MSTORE PUSH1 0x40 DUP4 KECCAK256 SWAP2 PUSH1 0x1 DUP1 PUSH1 0xA0 SHL SUB AND SWAP2 DUP3 DUP5 MSTORE PUSH1 0x20 MSTORE PUSH1 0xFF PUSH1 0x40 DUP5 KECCAK256 SLOAD AND PUSH1 0x0 EQ PUSH2 0x14E6 JUMPI DUP1 DUP4 MSTORE DUP3 PUSH1 0x20 MSTORE PUSH1 0x40 DUP4 KECCAK256 DUP3 DUP5 MSTORE PUSH1 0x20 MSTORE PUSH1 0x40 DUP4 KECCAK256 PUSH1 0xFF NOT DUP2 SLOAD AND SWAP1 SSTORE PUSH32 0xF6391F5C32D9C69D2A47EA670B442974B53935D1EDC7FD64EB21E047A839171B CALLER SWAP4 DUP1 LOG4 PUSH1 0x1 SWAP1 JUMP JUMPDEST SWAP2 SWAP1 DUP3 ADD DUP1 SWAP3 GT PUSH2 0x34F JUMPI JUMP JUMPDEST PUSH2 0x1579 CALLVALUE PUSH1 0x4 SLOAD PUSH2 0x1560 JUMP JUMPDEST PUSH1 0x4 SSTORE PUSH32 0xEC18F113D1F288691A2D2A6706471A8A068FEB27AFF1740D1B4EC1F60072A75A PUSH1 0x20 PUSH1 0x40 MLOAD CALLVALUE DUP2 MSTORE LOG1 JUMP JUMPDEST PUSH8 0xFFFFFFFFFFFFFFFF DUP2 GT PUSH2 0x5DE JUMPI PUSH1 0x1F ADD PUSH1 0x1F NOT AND PUSH1 0x20 ADD SWAP1 JUMP JUMPDEST PUSH1 0x4 DUP3 LT ISZERO PUSH2 0x1081 JUMPI MSTORE JUMP JUMPDEST SWAP2 SWAP1 DUP3 SUB SWAP2 DUP3 GT PUSH2 0x34F JUMPI JUMP JUMPDEST ISZERO PUSH2 0x15E4 JUMPI JUMP JUMPDEST PUSH1 0x40 MLOAD PUSH3 0x461BCD PUSH1 0xE5 SHL DUP2 MSTORE PUSH1 0x20 PUSH1 0x4 DUP3 ADD MSTORE PUSH1 0x10 PUSH1 0x24 DUP3 ADD MSTORE PUSH16 0x496E76616C6964207374726174656779 PUSH1 0x80 SHL PUSH1 0x44 DUP3 ADD MSTORE PUSH1 0x64 SWAP1 REVERT JUMPDEST PUSH1 0x0 DUP1 MLOAD PUSH1 0x20 PUSH2 0x18A7 DUP4 CODECOPY DUP2 MLOAD SWAP2 MSTORE PUSH1 0x2 DUP2 SLOAD EQ PUSH2 0x163A JUMPI PUSH1 0x2 SWAP1 SSTORE JUMP JUMPDEST PUSH1 0x40 MLOAD PUSH4 0x3EE5AEB5 PUSH1 0xE0 SHL DUP2 MSTORE PUSH1 0x4 SWAP1 REVERT JUMPDEST ISZERO PUSH2 0x1653 JUMPI JUMP JUMPDEST PUSH1 0x40 MLOAD PUSH3 0x461BCD PUSH1 0xE5 SHL DUP2 MSTORE PUSH1 0x20 PUSH1 0x4 DUP3 ADD MSTORE PUSH1 0x9 PUSH1 0x24 DUP3 ADD MSTORE PUSH9 0x2737BA1037BBB732B9 PUSH1 0xB9 SHL PUSH1 0x44 DUP3 ADD MSTORE PUSH1 0x64 SWAP1 REVERT JUMPDEST ISZERO PUSH2 0x168B JUMPI JUMP JUMPDEST PUSH1 0x40 MLOAD PUSH3 0x461BCD PUSH1 0xE5 SHL DUP2 MSTORE PUSH1 0x20 PUSH1 0x4 DUP3 ADD MSTORE PUSH1 0xF PUSH1 0x24 DUP3 ADD MSTORE PUSH15 0x141BDCDA5D1A5BDB8818DB1BDCD959 PUSH1 0x8A SHL PUSH1 0x44 DUP3 ADD MSTORE PUSH1 0x64 SWAP1 REVERT JUMPDEST RETURNDATASIZE ISZERO PUSH2 0x16ED JUMPI RETURNDATASIZE SWAP1 PUSH2 0x16D3 DUP3 PUSH2 0x15A8 JUMP JUMPDEST SWAP2 PUSH2 0x16E1 PUSH1 0x40 MLOAD SWAP4 DUP5 PUSH2 0x12F8 JUMP JUMPDEST DUP3 MSTORE RETURNDATASIZE PUSH1 0x0 PUSH1 0x20 DUP5 ADD RETURNDATACOPY JUMP JUMPDEST PUSH1 0x60 SWAP1 JUMP JUMPDEST ISZERO PUSH2 0x16F9 JUMPI JUMP JUMPDEST PUSH1 0x40 MLOAD PUSH3 0x461BCD PUSH1 0xE5 SHL DUP2 MSTORE PUSH1 0x20 PUSH1 0x4 DUP3 ADD MSTORE PUSH1 0xF PUSH1 0x24 DUP3 ADD MSTORE PUSH15 0x151C985B9CD9995C8819985A5B1959 PUSH1 0x8A SHL PUSH1 0x44 DUP3 ADD MSTORE PUSH1 0x64 SWAP1 REVERT JUMPDEST SWAP1 PUSH1 0x40 MLOAD PUSH2 0x173D DUP2 PUSH2 0x12DC JUMP JUMPDEST DUP3 SLOAD DUP2 MSTORE PUSH1 0x1 DUP4 ADD SLOAD PUSH1 0x1 PUSH1 0x1 PUSH1 0xA0 SHL SUB AND PUSH1 0x20 DUP3 ADD MSTORE PUSH1 0x2 DUP4 ADD SLOAD PUSH1 0x40 DUP3 ADD MSTORE PUSH1 0x3 DUP4 ADD SLOAD PUSH1 0x60 DUP3 ADD MSTORE PUSH1 0x4 DUP4 ADD SLOAD PUSH1 0x80 DUP3 ADD MSTORE PUSH1 0x5 DUP4 ADD SLOAD PUSH1 0xA0 DUP3 ADD MSTORE PUSH1 0x6 SWAP1 SWAP3 ADD SLOAD PUSH1 0xFF AND ISZERO ISZERO PUSH1 0xC0 DUP4 ADD MSTORE JUMP JUMPDEST DUP2 DUP2 MUL SWAP3 SWAP2 DUP2 ISZERO SWAP2 DUP5 DIV EQ OR ISZERO PUSH2 0x34F JUMPI JUMP JUMPDEST PUSH2 0x322 PUSH2 0x17AD SWAP2 PUSH2 0x1210 JUMP JUMPDEST PUSH1 0xC0 DUP2 ADD MLOAD ISZERO PUSH2 0x1874 JUMPI PUSH2 0x1870 DUP2 PUSH2 0x186B PUSH2 0x17CE PUSH5 0x496CEBB800 SWAP5 MLOAD PUSH2 0x124B JUMP JUMPDEST POP PUSH1 0x40 MLOAD PUSH2 0x17DB DUP2 PUSH2 0x12BF JUMP JUMPDEST PUSH2 0x17E4 DUP3 PUSH2 0x131A JUMP JUMPDEST DUP2 MSTORE PUSH1 0x1 DUP3 ADD SLOAD PUSH2 0x17FB PUSH1 0xFF DUP3 AND PUSH1 0x20 DUP5 ADD PUSH2 0x15C4 JUMP JUMPDEST PUSH1 0x1 DUP1 PUSH1 0xA0 SHL SUB SWAP1 PUSH1 0x8 SHR AND PUSH1 0x40 DUP3 ADD MSTORE PUSH2 0x100 PUSH1 0xFF PUSH1 0x7 PUSH1 0x2 DUP6 ADD SLOAD SWAP5 PUSH1 0x60 DUP6 ADD SWAP6 DUP7 MSTORE PUSH1 0x3 DUP2 ADD SLOAD PUSH1 0x80 DUP7 ADD MSTORE PUSH1 0x4 DUP2 ADD SLOAD PUSH1 0xA0 DUP7 ADD MSTORE PUSH1 0x5 DUP2 ADD SLOAD PUSH1 0xC0 DUP7 ADD MSTORE PUSH1 0x6 DUP2 ADD SLOAD PUSH1 0xE0 DUP7 ADD MSTORE ADD SLOAD AND ISZERO ISZERO SWAP2 ADD MSTORE PUSH1 0x40 PUSH2 0x1860 PUSH1 0x80 DUP6 ADD MLOAD TIMESTAMP PUSH2 0x15D0 JUMP JUMPDEST SWAP4 ADD MLOAD SWAP1 MLOAD SWAP1 PUSH2 0x178E JUMP JUMPDEST PUSH2 0x178E JUMP JUMPDEST DIV SWAP1 JUMP JUMPDEST POP PUSH1 0x0 SWAP1 JUMP JUMPDEST PUSH8 0xFFFFFFFFFFFFFFFF DUP2 GT PUSH2 0x5DE JUMPI PUSH1 0x5 SHL PUSH1 0x20 ADD SWAP1 JUMP JUMPDEST DUP1 MLOAD DUP3 LT ISZERO PUSH2 0x11FA JUMPI PUSH1 0x20 SWAP2 PUSH1 0x5 SHL ADD ADD SWAP1 JUMP INVALID SWAP12 PUSH24 0x9B17422D0DF92223018B32B4D1FA46E071723D6817E2486D STOP EXTCODESIZE 0xEC 0xC5 PUSH0 STOP LOG2 PUSH5 0x6970667358 0x22 SLT KECCAK256 NUMBER 0xF8 PUSH29 0xE5966E481D344C96DBE96AC049108C74F2630167219787AF9D1914F675 PUSH5 0x736F6C6343 STOP ADDMOD EQ STOP CALLER 0x2F DUP8 DUP9 GT PUSH31 0x7EFF1D82E926EC794901D17C78024A50270940304540A733656F0D00000000 "},"methodIdentifiers":{"DEFAULT_ADMIN_ROLE()":"a217fddf","YIELD_ADMIN()":"6c914d3d","calculateYield(uint256)":"80a3301b","claimYield(uint256)":"40bd2e23","createStrategy(string,uint8,address,uint256,uint256,uint256)":"200290bb","fundYieldPool()":"13901cf6","getPositionCount()":"81683476","getRoleAdmin(bytes32)":"248a9ca3","getStrategyCount()":"31e19cfa","getUserPositionDetails(address)":"b0bbe038","getUserPositions(address)":"2a6bc2dd","grantRole(bytes32,address)":"2f2ff15d","hasRole(bytes32,address)":"91d14854","positions(uint256)":"99fbab88","renounceRole(bytes32,address)":"36568abe","revokeRole(bytes32,address)":"d547741f","stake(uint256)":"a694fc3a","strategies(uint256)":"d574ea3d","supportsInterface(bytes4)":"01ffc9a7","unstake(uint256)":"2e17de78","updateStrategy(uint256,uint256,bool)":"4af40711","userPositions(address,uint256)":"5e1b4d99","yieldPool()":"8f188dd4"}}}}}