{
  "_format": "hh-sol-artifact-1",
  "contractName": "TreasuryVault",
  "sourceName": "contracts/treasury/TreasuryVault.sol",
  "abi": [
    {
      "inputs": [
        {
          "internalType": "uint256",
          "name": "approvalThreshold_",
          "type": "uint256"
        },
        {
          "internalType": "uint256",
          "name": "requiredApprovals_",
          "type": "uint256"
        }
      ],
      "stateMutability": "nonpayable",
      "type": "constructor"
    },
    {
      "inputs": [],
      "name": "AccessControlBadConfirmation",
      "type": "error"
    },
    {
      "inputs": [
        {
          "internalType": "address",
          "name": "account",
          "type": "address"
        },
        {
          "internalType": "bytes32",
          "name": "neededRole",
          "type": "bytes32"
        }
      ],
      "name": "AccessControlUnauthorizedAccount",
      "type": "error"
    },
    {
      "inputs": [],
      "name": "ReentrancyGuardReentrantCall",
      "type": "error"
    },
    {
      "inputs": [
        {
          "internalType": "address",
          "name": "token",
          "type": "address"
        }
      ],
      "name": "SafeERC20FailedOperation",
      "type": "error"
    },
    {
      "anonymous": false,
      "inputs": [
        {
          "indexed": true,
          "internalType": "bytes32",
          "name": "actionHash",
          "type": "bytes32"
        },
        {
          "indexed": false,
          "internalType": "address",
          "name": "approver",
          "type": "address"
        }
      ],
      "name": "ApprovalSubmitted",
      "type": "event"
    },
    {
      "anonymous": false,
      "inputs": [
        {
          "indexed": true,
          "internalType": "uint256",
          "name": "productId",
          "type": "uint256"
        },
        {
          "indexed": false,
          "internalType": "uint256",
          "name": "amount",
          "type": "uint256"
        },
        {
          "indexed": false,
          "internalType": "address",
          "name": "depositor",
          "type": "address"
        }
      ],
      "name": "DepositToYield",
      "type": "event"
    },
    {
      "anonymous": false,
      "inputs": [
        {
          "indexed": false,
          "internalType": "uint256",
          "name": "newValue",
          "type": "uint256"
        },
        {
          "indexed": false,
          "internalType": "uint256",
          "name": "timestamp",
          "type": "uint256"
        }
      ],
      "name": "NAVUpdated",
      "type": "event"
    },
    {
      "anonymous": false,
      "inputs": [
        {
          "indexed": true,
          "internalType": "address",
          "name": "from",
          "type": "address"
        },
        {
          "indexed": false,
          "internalType": "uint256",
          "name": "amount",
          "type": "uint256"
        }
      ],
      "name": "NativeDeposit",
      "type": "event"
    },
    {
      "anonymous": false,
      "inputs": [
        {
          "indexed": true,
          "internalType": "address",
          "name": "to",
          "type": "address"
        },
        {
          "indexed": false,
          "internalType": "uint256",
          "name": "amount",
          "type": "uint256"
        }
      ],
      "name": "NativeWithdrawal",
      "type": "event"
    },
    {
      "anonymous": false,
      "inputs": [
        {
          "indexed": false,
          "internalType": "address",
          "name": "fromToken",
          "type": "address"
        },
        {
          "indexed": false,
          "internalType": "address",
          "name": "toToken",
          "type": "address"
        },
        {
          "indexed": false,
          "internalType": "uint256",
          "name": "amount",
          "type": "uint256"
        }
      ],
      "name": "Rebalanced",
      "type": "event"
    },
    {
      "anonymous": false,
      "inputs": [
        {
          "indexed": true,
          "internalType": "uint256",
          "name": "reserveId",
          "type": "uint256"
        },
        {
          "indexed": false,
          "internalType": "address",
          "name": "token",
          "type": "address"
        },
        {
          "indexed": false,
          "internalType": "string",
          "name": "name",
          "type": "string"
        },
        {
          "indexed": false,
          "internalType": "uint256",
          "name": "targetBps",
          "type": "uint256"
        }
      ],
      "name": "ReserveAdded",
      "type": "event"
    },
    {
      "anonymous": false,
      "inputs": [
        {
          "indexed": true,
          "internalType": "uint256",
          "name": "reserveId",
          "type": "uint256"
        },
        {
          "indexed": false,
          "internalType": "uint256",
          "name": "newTargetBps",
          "type": "uint256"
        }
      ],
      "name": "ReserveUpdated",
      "type": "event"
    },
    {
      "anonymous": false,
      "inputs": [
        {
          "indexed": true,
          "internalType": "bytes32",
          "name": "role",
          "type": "bytes32"
        },
        {
          "indexed": true,
          "internalType": "bytes32",
          "name": "previousAdminRole",
          "type": "bytes32"
        },
        {
          "indexed": true,
          "internalType": "bytes32",
          "name": "newAdminRole",
          "type": "bytes32"
        }
      ],
      "name": "RoleAdminChanged",
      "type": "event"
    },
    {
      "anonymous": false,
      "inputs": [
        {
          "indexed": true,
          "internalType": "bytes32",
          "name": "role",
          "type": "bytes32"
        },
        {
          "indexed": true,
          "internalType": "address",
          "name": "account",
          "type": "address"
        },
        {
          "indexed": true,
          "internalType": "address",
          "name": "sender",
          "type": "address"
        }
      ],
      "name": "RoleGranted",
      "type": "event"
    },
    {
      "anonymous": false,
      "inputs": [
        {
          "indexed": true,
          "internalType": "bytes32",
          "name": "role",
          "type": "bytes32"
        },
        {
          "indexed": true,
          "internalType": "address",
          "name": "account",
          "type": "address"
        },
        {
          "indexed": true,
          "internalType": "address",
          "name": "sender",
          "type": "address"
        }
      ],
      "name": "RoleRevoked",
      "type": "event"
    },
    {
      "anonymous": false,
      "inputs": [
        {
          "indexed": true,
          "internalType": "uint256",
          "name": "productId",
          "type": "uint256"
        },
        {
          "indexed": false,
          "internalType": "string",
          "name": "name",
          "type": "string"
        },
        {
          "indexed": false,
          "internalType": "uint256",
          "name": "apyBps",
          "type": "uint256"
        }
      ],
      "name": "YieldProductAdded",
      "type": "event"
    },
    {
      "anonymous": false,
      "inputs": [
        {
          "indexed": true,
          "internalType": "uint256",
          "name": "productId",
          "type": "uint256"
        },
        {
          "indexed": false,
          "internalType": "uint256",
          "name": "newApyBps",
          "type": "uint256"
        },
        {
          "indexed": false,
          "internalType": "bool",
          "name": "active",
          "type": "bool"
        }
      ],
      "name": "YieldProductUpdated",
      "type": "event"
    },
    {
      "inputs": [],
      "name": "DEFAULT_ADMIN_ROLE",
      "outputs": [
        {
          "internalType": "bytes32",
          "name": "",
          "type": "bytes32"
        }
      ],
      "stateMutability": "view",
      "type": "function"
    },
    {
      "inputs": [],
      "name": "TREASURER_ROLE",
      "outputs": [
        {
          "internalType": "bytes32",
          "name": "",
          "type": "bytes32"
        }
      ],
      "stateMutability": "view",
      "type": "function"
    },
    {
      "inputs": [],
      "name": "YIELD_MANAGER_ROLE",
      "outputs": [
        {
          "internalType": "bytes32",
          "name": "",
          "type": "bytes32"
        }
      ],
      "stateMutability": "view",
      "type": "function"
    },
    {
      "inputs": [
        {
          "internalType": "address",
          "name": "token_",
          "type": "address"
        },
        {
          "internalType": "string",
          "name": "name_",
          "type": "string"
        },
        {
          "internalType": "uint256",
          "name": "targetBps_",
          "type": "uint256"
        }
      ],
      "name": "addReserve",
      "outputs": [],
      "stateMutability": "nonpayable",
      "type": "function"
    },
    {
      "inputs": [
        {
          "internalType": "string",
          "name": "name_",
          "type": "string"
        },
        {
          "internalType": "uint256",
          "name": "apyBps_",
          "type": "uint256"
        },
        {
          "internalType": "string",
          "name": "riskLevel_",
          "type": "string"
        },
        {
          "internalType": "string",
          "name": "provider_",
          "type": "string"
        },
        {
          "internalType": "uint256",
          "name": "maturityDate_",
          "type": "uint256"
        }
      ],
      "name": "addYieldProduct",
      "outputs": [],
      "stateMutability": "nonpayable",
      "type": "function"
    },
    {
      "inputs": [],
      "name": "approvalThreshold",
      "outputs": [
        {
          "internalType": "uint256",
          "name": "",
          "type": "uint256"
        }
      ],
      "stateMutability": "view",
      "type": "function"
    },
    {
      "inputs": [
        {
          "internalType": "uint256",
          "name": "productId",
          "type": "uint256"
        }
      ],
      "name": "depositToYieldProduct",
      "outputs": [],
      "stateMutability": "payable",
      "type": "function"
    },
    {
      "inputs": [],
      "name": "getNativeBalance",
      "outputs": [
        {
          "internalType": "uint256",
          "name": "",
          "type": "uint256"
        }
      ],
      "stateMutability": "view",
      "type": "function"
    },
    {
      "inputs": [
        {
          "internalType": "uint256",
          "name": "offset",
          "type": "uint256"
        },
        {
          "internalType": "uint256",
          "name": "limit",
          "type": "uint256"
        }
      ],
      "name": "getRebalanceHistory",
      "outputs": [
        {
          "components": [
            {
              "internalType": "address",
              "name": "fromToken",
              "type": "address"
            },
            {
              "internalType": "address",
              "name": "toToken",
              "type": "address"
            },
            {
              "internalType": "uint256",
              "name": "amount",
              "type": "uint256"
            },
            {
              "internalType": "address",
              "name": "executor",
              "type": "address"
            },
            {
              "internalType": "uint256",
              "name": "timestamp",
              "type": "uint256"
            }
          ],
          "internalType": "struct TreasuryVault.RebalanceAction[]",
          "name": "",
          "type": "tuple[]"
        }
      ],
      "stateMutability": "view",
      "type": "function"
    },
    {
      "inputs": [],
      "name": "getReserveCount",
      "outputs": [
        {
          "internalType": "uint256",
          "name": "",
          "type": "uint256"
        }
      ],
      "stateMutability": "view",
      "type": "function"
    },
    {
      "inputs": [
        {
          "internalType": "bytes32",
          "name": "role",
          "type": "bytes32"
        }
      ],
      "name": "getRoleAdmin",
      "outputs": [
        {
          "internalType": "bytes32",
          "name": "",
          "type": "bytes32"
        }
      ],
      "stateMutability": "view",
      "type": "function"
    },
    {
      "inputs": [],
      "name": "getYieldProductCount",
      "outputs": [
        {
          "internalType": "uint256",
          "name": "",
          "type": "uint256"
        }
      ],
      "stateMutability": "view",
      "type": "function"
    },
    {
      "inputs": [
        {
          "internalType": "bytes32",
          "name": "role",
          "type": "bytes32"
        },
        {
          "internalType": "address",
          "name": "account",
          "type": "address"
        }
      ],
      "name": "grantRole",
      "outputs": [],
      "stateMutability": "nonpayable",
      "type": "function"
    },
    {
      "inputs": [
        {
          "internalType": "bytes32",
          "name": "",
          "type": "bytes32"
        },
        {
          "internalType": "address",
          "name": "",
          "type": "address"
        }
      ],
      "name": "hasApproved",
      "outputs": [
        {
          "internalType": "bool",
          "name": "",
          "type": "bool"
        }
      ],
      "stateMutability": "view",
      "type": "function"
    },
    {
      "inputs": [
        {
          "internalType": "bytes32",
          "name": "role",
          "type": "bytes32"
        },
        {
          "internalType": "address",
          "name": "account",
          "type": "address"
        }
      ],
      "name": "hasRole",
      "outputs": [
        {
          "internalType": "bool",
          "name": "",
          "type": "bool"
        }
      ],
      "stateMutability": "view",
      "type": "function"
    },
    {
      "inputs": [],
      "name": "lastNAVUpdate",
      "outputs": [
        {
          "internalType": "uint256",
          "name": "",
          "type": "uint256"
        }
      ],
      "stateMutability": "view",
      "type": "function"
    },
    {
      "inputs": [
        {
          "internalType": "bytes32",
          "name": "",
          "type": "bytes32"
        }
      ],
      "name": "pendingApprovals",
      "outputs": [
        {
          "internalType": "uint256",
          "name": "",
          "type": "uint256"
        }
      ],
      "stateMutability": "view",
      "type": "function"
    },
    {
      "inputs": [
        {
          "internalType": "address",
          "name": "fromToken",
          "type": "address"
        },
        {
          "internalType": "address",
          "name": "toToken",
          "type": "address"
        },
        {
          "internalType": "uint256",
          "name": "amount",
          "type": "uint256"
        }
      ],
      "name": "rebalance",
      "outputs": [],
      "stateMutability": "nonpayable",
      "type": "function"
    },
    {
      "inputs": [
        {
          "internalType": "uint256",
          "name": "",
          "type": "uint256"
        }
      ],
      "name": "rebalanceHistory",
      "outputs": [
        {
          "internalType": "address",
          "name": "fromToken",
          "type": "address"
        },
        {
          "internalType": "address",
          "name": "toToken",
          "type": "address"
        },
        {
          "internalType": "uint256",
          "name": "amount",
          "type": "uint256"
        },
        {
          "internalType": "address",
          "name": "executor",
          "type": "address"
        },
        {
          "internalType": "uint256",
          "name": "timestamp",
          "type": "uint256"
        }
      ],
      "stateMutability": "view",
      "type": "function"
    },
    {
      "inputs": [
        {
          "internalType": "bytes32",
          "name": "role",
          "type": "bytes32"
        },
        {
          "internalType": "address",
          "name": "callerConfirmation",
          "type": "address"
        }
      ],
      "name": "renounceRole",
      "outputs": [],
      "stateMutability": "nonpayable",
      "type": "function"
    },
    {
      "inputs": [],
      "name": "requiredApprovals",
      "outputs": [
        {
          "internalType": "uint256",
          "name": "",
          "type": "uint256"
        }
      ],
      "stateMutability": "view",
      "type": "function"
    },
    {
      "inputs": [
        {
          "internalType": "uint256",
          "name": "",
          "type": "uint256"
        }
      ],
      "name": "reserves",
      "outputs": [
        {
          "internalType": "address",
          "name": "token",
          "type": "address"
        },
        {
          "internalType": "string",
          "name": "name",
          "type": "string"
        },
        {
          "internalType": "uint256",
          "name": "targetAllocationBps",
          "type": "uint256"
        },
        {
          "internalType": "bool",
          "name": "active",
          "type": "bool"
        }
      ],
      "stateMutability": "view",
      "type": "function"
    },
    {
      "inputs": [
        {
          "internalType": "bytes32",
          "name": "role",
          "type": "bytes32"
        },
        {
          "internalType": "address",
          "name": "account",
          "type": "address"
        }
      ],
      "name": "revokeRole",
      "outputs": [],
      "stateMutability": "nonpayable",
      "type": "function"
    },
    {
      "inputs": [
        {
          "internalType": "bytes4",
          "name": "interfaceId",
          "type": "bytes4"
        }
      ],
      "name": "supportsInterface",
      "outputs": [
        {
          "internalType": "bool",
          "name": "",
          "type": "bool"
        }
      ],
      "stateMutability": "view",
      "type": "function"
    },
    {
      "inputs": [],
      "name": "totalTreasuryValueUSD",
      "outputs": [
        {
          "internalType": "uint256",
          "name": "",
          "type": "uint256"
        }
      ],
      "stateMutability": "view",
      "type": "function"
    },
    {
      "inputs": [
        {
          "internalType": "uint256",
          "name": "newValueUSD",
          "type": "uint256"
        }
      ],
      "name": "updateNAV",
      "outputs": [],
      "stateMutability": "nonpayable",
      "type": "function"
    },
    {
      "inputs": [
        {
          "internalType": "uint256",
          "name": "reserveId",
          "type": "uint256"
        },
        {
          "internalType": "uint256",
          "name": "newTargetBps",
          "type": "uint256"
        }
      ],
      "name": "updateReserveTarget",
      "outputs": [],
      "stateMutability": "nonpayable",
      "type": "function"
    },
    {
      "inputs": [
        {
          "internalType": "uint256",
          "name": "productId",
          "type": "uint256"
        },
        {
          "internalType": "uint256",
          "name": "newApyBps",
          "type": "uint256"
        },
        {
          "internalType": "bool",
          "name": "active_",
          "type": "bool"
        }
      ],
      "name": "updateYieldProduct",
      "outputs": [],
      "stateMutability": "nonpayable",
      "type": "function"
    },
    {
      "inputs": [
        {
          "internalType": "address payable",
          "name": "to",
          "type": "address"
        },
        {
          "internalType": "uint256",
          "name": "amount",
          "type": "uint256"
        }
      ],
      "name": "withdrawNative",
      "outputs": [],
      "stateMutability": "nonpayable",
      "type": "function"
    },
    {
      "inputs": [
        {
          "internalType": "address",
          "name": "token",
          "type": "address"
        },
        {
          "internalType": "address",
          "name": "to",
          "type": "address"
        },
        {
          "internalType": "uint256",
          "name": "amount",
          "type": "uint256"
        }
      ],
      "name": "withdrawToken",
      "outputs": [],
      "stateMutability": "nonpayable",
      "type": "function"
    },
    {
      "inputs": [
        {
          "internalType": "uint256",
          "name": "",
          "type": "uint256"
        }
      ],
      "name": "yieldProducts",
      "outputs": [
        {
          "internalType": "string",
          "name": "name",
          "type": "string"
        },
        {
          "internalType": "uint256",
          "name": "apyBps",
          "type": "uint256"
        },
        {
          "internalType": "string",
          "name": "riskLevel",
          "type": "string"
        },
        {
          "internalType": "string",
          "name": "provider",
          "type": "string"
        },
        {
          "internalType": "uint256",
          "name": "totalDeposited",
          "type": "uint256"
        },
        {
          "internalType": "uint256",
          "name": "maturityDate",
          "type": "uint256"
        },
        {
          "internalType": "bool",
          "name": "active",
          "type": "bool"
        }
      ],
      "stateMutability": "view",
      "type": "function"
    },
    {
      "stateMutability": "payable",
      "type": "receive"
    }
  ],
  "bytecode": "0x608034620000a757601f6200200138819003918201601f19168301916001600160401b03831184841017620000ac578084926040948552833981010312620000a757602081519101519060017f9b779b17422d0df92223018b32b4d1fa46e071723d6817e2486d003becc55f00556200007833620000c2565b50620000843362000142565b506200009033620001e4565b50600655600955604051611d5f9081620002828239f35b600080fd5b634e487b7160e01b600052604160045260246000fd5b6001600160a01b031660008181527fad3228b676f7d3cd4284a5443f17f1962b36e491b30a40b2405849e597ba5fb5602052604081205490919060ff166200013e57818052816020526040822081835260205260408220600160ff19825416179055339160008051602062001fe18339815191528180a4600190565b5090565b6001600160a01b031660008181527f991c3211066600fc98d95d017c66f2884b1fa3d4cabc2576d000f3cc80931bda60205260408120549091907f3496e2e73c4d42b75d702e60d9e48102720b8691234415963a5a857b86425d079060ff16620001df57808352826020526040832082845260205260408320600160ff1982541617905560008051602062001fe1833981519152339380a4600190565b505090565b6001600160a01b031660008181527fac7f456f33c5ee351ae3de46295d1da134dc7a37f62366914b5b4d70f151cdb060205260408120549091907f470f4f1717679395b6a9e0700797bfeeaa970f1643e72f5684d687c0be10fe279060ff16620001df57808352826020526040832082845260205260408320600160ff1982541617905560008051602062001fe1833981519152339380a460019056fe60806040526004361015610047575b361561001957600080fd5b6040513481527fcd9850463422a7449c406a036e35e5edb6fbe35a64c9f12a2354be98a750c0d360203392a2005b60003560e01c806301e336671461167057806301ffc9a71461161a578063070975081461158757806307b18bde146114595780630cb1982b1461140457806323cdc3f1146113b7578063248a9ca3146113885780632535cf4214610e7f5780632f2ff15d14610e4057806336568abe14610df95780633d47d28914610dcd5780634a6ee3a814610d315780634c39ad4814610cc657806363df36ca14610c0d5780637d0eef6114610bef5780638334278d14610b7557806385f2170c14610a6e5780638687098b14610a5057806388a9d55414610a3457806391d14854146109e757806395cb659314610844578063998065461461082657806399c1aadc14610808578063a217fddf146107ec578063a221035a146107ce578063b3f865f714610526578063d547741f146104e5578063f0852bdf146104c7578063f0a3a97c1461048c578063f7ab29da146101e15763fe9e96400361000e57346101dc5760003660031901126101dc5760206040517f470f4f1717679395b6a9e0700797bfeeaa970f1643e72f5684d687c0be10fe278152f35b600080fd5b346101dc5760603660031901126101dc576004356001600160a01b0380821682036101dc576001600160401b03906024358281116101dc57610227903690600401611715565b939092610232611964565b6040516080810181811083821117610460576040528383168152610257368787611b6e565b9160208201928352604435604083015260016060830152600154600160401b8110156104605780600161028d920160015561192a565b93909361047657825184546001600160a01b031916908716178455518051918211610460576102bf60018501546117ce565b601f8111610419575b50602090601f83116001146103a15792826003936060936103239796600092610396575b505060001982861b1c1916600191821b17908501555b604081015160028501550151151591019060ff801983541691151516179055565b600154600019810194908511610380577f6007575842a591a73a58507fec51a764b18e5ef1b0abc33ca4b01ce6139a61519361037391604051948594168452606060208501526060840191611bb2565b60443560408301520390a2005b634e487b7160e01b600052601160045260246000fd5b015190508b806102ec565b906001850160005260206000209160005b601f1985168110610401575083606093610323979693600193600397601f198116106103e9575b505050811b016001850155610302565b015160001983881b60f8161c191690558b80806103d9565b919260206001819286850151815501940192016103b2565b600185016000526020600020601f840160051c810160208510610459575b601f830160051c8201811061044d5750506102c8565b60008155600101610437565b5080610437565b634e487b7160e01b600052604160045260246000fd5b634e487b7160e01b600052600060045260246000fd5b346101dc5760003660031901126101dc5760206040517f3496e2e73c4d42b75d702e60d9e48102720b8691234415963a5a857b86425d078152f35b346101dc5760003660031901126101dc576020600454604051908152f35b346101dc5760403660031901126101dc576105246004356105046116b4565b9080600052600060205261051f600160406000200154611a3a565b611ade565b005b346101dc57610534366116ca565b61053c611964565b610544611c1e565b6006548110156106a5575b6001600160a01b03928316908161069557804710610650575b6040519261057584611808565b82845284602085019116908181526040850194838652606081013381526080820190428252600354600160401b811015610460578060016105b99201600355611742565b94909461047657896060997f4ce94e8bd94f62017197ba464f629a366572732970f6fe47c76f97bb53f763039b6004965116926bffffffffffffffffffffffff60a01b938489541617885582600189019151168482541617905551600287015560038601925116908254161790555191015560405192835260208301526040820152a16001600080516020611d0a83398151915255005b60405162461bcd60e51b815260206004820152601b60248201527f496e73756666696369656e74206e61746976652062616c616e636500000000006044820152606490fd5b6106a0813084611c5d565b610568565b604051602090818101906bffffffffffffffffffffffff19808760601b1683528560601b166034820152836048820152426068820152606881526106e881611808565b5190208060005260088252604060002033600052825260ff6040600020541615610763575b6000526007815260406000205460095411610728575061054f565b6064906040519062461bcd60e51b8252600482015260146024820152734e65656473206d6f726520617070726f76616c7360601b6044820152fd5b806000526008825260406000203360005282526040600020600160ff198254161790558060005260078252604060002061079d8154611c4e565b9055807f139c8e2b3109680b4fd427b1a78d5ff088cdff9bf3e51974cce2b88f4a929d3283604051338152a261070d565b346101dc5760003660031901126101dc576020600254604051908152f35b346101dc5760003660031901126101dc57602060405160008152f35b346101dc5760003660031901126101dc576020600954604051908152f35b346101dc5760003660031901126101dc576020600154604051908152f35b346101dc5761085d610855366116ff565b819291611c11565b60039182548083116109df575b506108758183611ba5565b9261087f84611cde565b9361088d6040519586611823565b80855261089c601f1991611cde565b0160005b8181106109a5575050815b8381106109285760408051602080825287518183018190528189019383019160005b8281106108da5784840385f35b855180516001600160a01b039081168652818401518116868501526040808301519087015260608083015190911690860152608090810151908501529481019460a0909301926001016108cd565b8061099a6109386109a093611742565b506109438684611ba5565b9060046040519161095383611808565b80546001600160a01b039081168452600182015481166020850152600282015460408501528882015416606084015201546080820152610993828a611cf5565b5287611cf5565b50611c4e565b6108ab565b6020906040516109b481611808565b60008152826000818301526000604083015260006060830152600060808301528289010152016108a0565b91508361086a565b346101dc5760403660031901126101dc57610a006116b4565b600435600052600060205260406000209060018060a01b0316600052602052602060ff604060002054166040519015158152f35b346101dc5760003660031901126101dc57602047604051908152f35b346101dc5760003660031901126101dc576020600554604051908152f35b60203660031901126101dc57600435610a85611c1e565b610a926002548210611bd3565b60ff6006610a9f83611793565b5001541615610b3d573415610b0b576004610ab982611793565b5001610ac6348254611c11565b90557f2ace307711371fce1c6c4acb3841b7643a178713042daf75b65d0be6b52856c460408051348152336020820152a26001600080516020611d0a83398151915255005b60405162461bcd60e51b815260206004820152600a602482015269139bc819195c1bdcda5d60b21b6044820152606490fd5b60405162461bcd60e51b815260206004820152601060248201526f50726f6475637420696e61637469766560801b6044820152606490fd5b346101dc5760203660031901126101dc576004356001548110156101dc57610b9c9061192a565b5080546001600160a01b0316610bb460018301611844565b9160ff6003600283015492015416610bde60405194859485526080602086015260808501906118ea565b916040840152151560608301520390f35b346101dc5760003660031901126101dc576020600654604051908152f35b346101dc5760203660031901126101dc576004356002548110156101dc57610c37610c8f91611793565b50610c4181611844565b90600181015490610c5460028201611844565b90610cb0610c6460038301611844565b610ca260048401549560ff600660058701549601541695604051998a9960e08b5260e08b01906118ea565b9160208a015288820360408a01526118ea565b9086820360608801526118ea565b92608085015260a0840152151560c08301520390f35b346101dc5760203660031901126101dc576004356003548110156101dc57610cef60a091611742565b50600180831b03808254169181600182015416916004600283015491600384015416920154926040519485526020850152604084015260608301526080820152f35b346101dc5760603660031901126101dc57600435602435604435801515918282036101dc577ffecc6904c6a6d3e1acffbd4d25e7e074c1125c7b11f75c845db4ef54ad2c4d5a92610dc0604093610d866119de565b610d936002548810611bd3565b836001610d9f89611793565b5001556006610dad88611793565b50019060ff801983541691151516179055565b82519182526020820152a2005b346101dc5760203660031901126101dc5760043560005260076020526020604060002054604051908152f35b346101dc5760403660031901126101dc57610e126116b4565b336001600160a01b03821603610e2e5761052490600435611ade565b60405163334bd91960e11b8152600490fd5b346101dc5760403660031901126101dc57610524600435610e5f6116b4565b90806000526000602052610e7a600160406000200154611a3a565b611a60565b346101dc5760a03660031901126101dc576004356001600160401b0381116101dc57610eaf903690600401611715565b6044356001600160401b0381116101dc57610ece903690600401611715565b6064356001600160401b0381116101dc57610eed903690600401611715565b610ef56119de565b6040519360e08501908582106001600160401b0383111761046057610f4394610f3792604052610f2636898b611b6e565b875260243560208801523691611b6e565b60408501523691611b6e565b60608201526000608082015260843560a0820152600160c0820152600254600160401b81101561046057806001610f7d9201600255611793565b9190916104765780518051906001600160401b038211610460578190610fa385546117ce565b601f8111611338575b50602090601f83116001146112cc576000926112c1575b50508160011b916000199060031b1c19161782555b6020810151600183015560408101518051906001600160401b03821161046057819061100760028601546117ce565b601f811161126e575b50602090601f83116001146111fc576000926111f1575b50508160011b916000199060031b1c19161760028301555b60608101518051906001600160401b0382116104605761106260038501546117ce565b601f81116111aa575b50602090601f831160011461113357928260069360c0936110d29796600092611128575b50508160011b916000199060031b1c19161760038501555b6080810151600485015560a081015160058501550151151591019060ff801983541691151516179055565b600254600019810192908311610380577f51b7e01db419ba7e5b4299ee8f4bc7a82afda4bf05e056bee74daaa526d302849161111b604051928392604084526040840191611bb2565b60243560208301520390a2005b01519050898061108f565b90601f198316916003860160005260206000209260005b81811061119257509360c0936110d29796936001938360069810611179575b505050811b0160038501556110a7565b015160001960f88460031b161c19169055898080611169565b9293602060018192878601518155019501930161114a565b600385016000526020600020601f840160051c8101602085106111ea575b601f830160051c820181106111de57505061106b565b600081556001016111c8565b50806111c8565b015190508680611027565b9250600285016000526020600020906000935b601f1984168510611253576001945083601f1981161061123a575b505050811b01600283015561103f565b015160001960f88460031b161c1916905586808061122a565b8181015183556020948501946001909301929091019061120f565b909150600285016000526020600020601f840160051c8101602085106112ba575b90849392915b601f830160051c820181106112ab575050611010565b60008155859450600101611295565b508061128f565b015190508680610fc3565b9250846000526020600020906000935b601f198416851061131d576001945083601f19811610611304575b505050811b018255610fd8565b015160001960f88460031b161c191690558680806112f7565b818101518355602094850194600190930192909101906112dc565b909150846000526020600020601f840160051c810160208510611381575b90849392915b601f830160051c82018110611372575050610fac565b6000815585945060010161135c565b5080611356565b346101dc5760203660031901126101dc5760043560005260006020526020600160406000200154604051908152f35b346101dc5760403660031901126101dc576113d06116b4565b600435600052600860205260406000209060018060a01b0316600052602052602060ff604060002054166040519015158152f35b346101dc5760203660031901126101dc577f224bbf4ba043354bee6487d05aa90892db4426afe8e3aa79007d0eae1b985ebc6040600435611443611964565b80600455426005558151908152426020820152a1005b346101dc5760403660031901126101dc576004356001600160a01b038116908190036101dc5760243561148a611964565b611492611c1e565b80471061154b57600080808084865af13d15611546573d6114b281611b53565b906114c06040519283611823565b8152600060203d92013e5b1561150f5760207f2c876ecb97b3c6854f2488d373403f903eacb800e51c159a5c0c7a9c857e482791604051908152a26001600080516020611d0a83398151915255005b60405162461bcd60e51b815260206004820152600f60248201526e151c985b9cd9995c8819985a5b1959608a1b6044820152606490fd5b6114cb565b60405162461bcd60e51b8152602060048201526014602482015273496e73756666696369656e742062616c616e636560601b6044820152606490fd5b346101dc57611595366116ff565b61159d611964565b6001548210156115e3576020817f32dc813d3f262a05478ad1165d5701040e411d9a6e1684c8c2da1c8e6f3b80229260026115d78661192a565b500155604051908152a2005b60405162461bcd60e51b815260206004820152600f60248201526e496e76616c6964207265736572766560881b6044820152606490fd5b346101dc5760203660031901126101dc5760043563ffffffff60e01b81168091036101dc57602090637965db0b60e01b811490811561165f575b506040519015158152f35b6301ffc9a760e01b14905082611654565b346101dc576116a0611681366116ca565b9161168a611964565b611692611c1e565b6001600160a01b0316611c5d565b6001600080516020611d0a83398151915255005b602435906001600160a01b03821682036101dc57565b60609060031901126101dc576001600160a01b039060043582811681036101dc579160243590811681036101dc579060443590565b60409060031901126101dc576004359060243590565b9181601f840112156101dc578235916001600160401b0383116101dc57602083818601950101116101dc57565b60035481101561177d576005906003600052027fc2575a0e9e593c00f959f8c92f12db2869c3395a3b0502d05e2516446f71f85b0190600090565b634e487b7160e01b600052603260045260246000fd5b60025481101561177d576007906002600052027f405787fa12a823e0f2b7631cc41b3ba8828b3321ca811111fa75cd3aa3bb5ace0190600090565b90600182811c921680156117fe575b60208310146117e857565b634e487b7160e01b600052602260045260246000fd5b91607f16916117dd565b60a081019081106001600160401b0382111761046057604052565b90601f801991011681019081106001600160401b0382111761046057604052565b9060405191826000825492611858846117ce565b9081845260019485811690816000146118c75750600114611884575b505061188292500383611823565b565b9093915060005260209081600020936000915b8183106118af57505061188293508201013880611874565b85548884018501529485019487945091830191611897565b91505061188294506020925060ff191682840152151560051b8201013880611874565b919082519283825260005b848110611916575050826000602080949584010152601f8019910116010190565b6020818301810151848301820152016118f5565b60015481101561177d57600160005260021b7fb10e2d527612073b26eecdfd717e6a320cf44b4afac2b0732d9fcbe2b7fa0cf60190600090565b3360009081527f991c3211066600fc98d95d017c66f2884b1fa3d4cabc2576d000f3cc80931bda60205260409020547f3496e2e73c4d42b75d702e60d9e48102720b8691234415963a5a857b86425d079060ff16156119c05750565b6044906040519063e2517d3f60e01b82523360048301526024820152fd5b3360009081527fac7f456f33c5ee351ae3de46295d1da134dc7a37f62366914b5b4d70f151cdb060205260409020547f470f4f1717679395b6a9e0700797bfeeaa970f1643e72f5684d687c0be10fe279060ff16156119c05750565b80600052600060205260406000203360005260205260ff60406000205416156119c05750565b9060009180835282602052604083209160018060a01b03169182845260205260ff60408420541615600014611ad957808352826020526040832082845260205260408320600160ff198254161790557f2f8788117e7eff1d82e926ec794901d17c78024a50270940304540a733656f0d339380a4600190565b505090565b9060009180835282602052604083209160018060a01b03169182845260205260ff604084205416600014611ad95780835282602052604083208284526020526040832060ff1981541690557ff6391f5c32d9c69d2a47ea670b442974b53935d1edc7fd64eb21e047a839171b339380a4600190565b6001600160401b03811161046057601f01601f191660200190565b929192611b7a82611b53565b91611b886040519384611823565b8294818452818301116101dc578281602093846000960137010152565b9190820391821161038057565b908060209392818452848401376000828201840152601f01601f1916010190565b15611bda57565b60405162461bcd60e51b815260206004820152600f60248201526e125b9d985b1a59081c1c9bd91d58dd608a1b6044820152606490fd5b9190820180921161038057565b600080516020611d0a8339815191526002815414611c3c5760029055565b604051633ee5aeb560e01b8152600490fd5b60001981146103805760010190565b60405163a9059cbb60e01b60009081526001600160a01b039384166004526024949094529260209060448180855af1600160005114811615611cbe575b8360405215611ca857505050565b635274afe760e01b835216600482015260249150fd5b6001811516611cd457813b15153d151616611c9a565b833d6000823e3d90fd5b6001600160401b0381116104605760051b60200190565b805182101561177d5760209160051b01019056fe9b779b17422d0df92223018b32b4d1fa46e071723d6817e2486d003becc55f00a2646970667358221220f8ecb690d09e46c01d182558ea0e02d4787a2ed5c927f34eb119ac16d69948dc64736f6c634300081400332f8788117e7eff1d82e926ec794901d17c78024a50270940304540a733656f0d",
  "linkReferences": {},
  "deployedLinkReferences": {}
}