{
  "_format": "hh-sol-artifact-1",
  "contractName": "ComplianceRegistry",
  "sourceName": "contracts/compliance/ComplianceRegistry.sol",
  "abi": [
    {
      "inputs": [],
      "stateMutability": "nonpayable",
      "type": "constructor"
    },
    {
      "inputs": [],
      "name": "AccessControlBadConfirmation",
      "type": "error"
    },
    {
      "inputs": [
        {
          "internalType": "address",
          "name": "account",
          "type": "address"
        },
        {
          "internalType": "bytes32",
          "name": "neededRole",
          "type": "bytes32"
        }
      ],
      "name": "AccessControlUnauthorizedAccount",
      "type": "error"
    },
    {
      "anonymous": false,
      "inputs": [
        {
          "indexed": true,
          "internalType": "uint256",
          "name": "entryId",
          "type": "uint256"
        },
        {
          "indexed": true,
          "internalType": "address",
          "name": "subject",
          "type": "address"
        },
        {
          "indexed": false,
          "internalType": "string",
          "name": "action",
          "type": "string"
        }
      ],
      "name": "AuditLogged",
      "type": "event"
    },
    {
      "anonymous": false,
      "inputs": [
        {
          "indexed": false,
          "internalType": "string",
          "name": "ruleId",
          "type": "string"
        },
        {
          "indexed": false,
          "internalType": "string",
          "name": "description",
          "type": "string"
        },
        {
          "indexed": false,
          "internalType": "string",
          "name": "jurisdiction",
          "type": "string"
        }
      ],
      "name": "ComplianceRuleAdded",
      "type": "event"
    },
    {
      "anonymous": false,
      "inputs": [
        {
          "indexed": false,
          "internalType": "string",
          "name": "ruleId",
          "type": "string"
        },
        {
          "indexed": false,
          "internalType": "bool",
          "name": "active",
          "type": "bool"
        }
      ],
      "name": "ComplianceRuleToggled",
      "type": "event"
    },
    {
      "anonymous": false,
      "inputs": [
        {
          "indexed": true,
          "internalType": "address",
          "name": "account",
          "type": "address"
        },
        {
          "indexed": false,
          "internalType": "enum ComplianceRegistry.KYCStatus",
          "name": "status",
          "type": "uint8"
        },
        {
          "indexed": false,
          "internalType": "enum ComplianceRegistry.InvestorType",
          "name": "investorType",
          "type": "uint8"
        }
      ],
      "name": "IdentityUpdated",
      "type": "event"
    },
    {
      "anonymous": false,
      "inputs": [
        {
          "indexed": true,
          "internalType": "bytes32",
          "name": "role",
          "type": "bytes32"
        },
        {
          "indexed": true,
          "internalType": "bytes32",
          "name": "previousAdminRole",
          "type": "bytes32"
        },
        {
          "indexed": true,
          "internalType": "bytes32",
          "name": "newAdminRole",
          "type": "bytes32"
        }
      ],
      "name": "RoleAdminChanged",
      "type": "event"
    },
    {
      "anonymous": false,
      "inputs": [
        {
          "indexed": true,
          "internalType": "bytes32",
          "name": "role",
          "type": "bytes32"
        },
        {
          "indexed": true,
          "internalType": "address",
          "name": "account",
          "type": "address"
        },
        {
          "indexed": true,
          "internalType": "address",
          "name": "sender",
          "type": "address"
        }
      ],
      "name": "RoleGranted",
      "type": "event"
    },
    {
      "anonymous": false,
      "inputs": [
        {
          "indexed": true,
          "internalType": "bytes32",
          "name": "role",
          "type": "bytes32"
        },
        {
          "indexed": true,
          "internalType": "address",
          "name": "account",
          "type": "address"
        },
        {
          "indexed": true,
          "internalType": "address",
          "name": "sender",
          "type": "address"
        }
      ],
      "name": "RoleRevoked",
      "type": "event"
    },
    {
      "anonymous": false,
      "inputs": [
        {
          "indexed": true,
          "internalType": "address",
          "name": "account",
          "type": "address"
        },
        {
          "indexed": false,
          "internalType": "bool",
          "name": "sanctioned",
          "type": "bool"
        }
      ],
      "name": "SanctionUpdated",
      "type": "event"
    },
    {
      "anonymous": false,
      "inputs": [
        {
          "indexed": true,
          "internalType": "address",
          "name": "investor",
          "type": "address"
        },
        {
          "indexed": true,
          "internalType": "address",
          "name": "token",
          "type": "address"
        },
        {
          "indexed": false,
          "internalType": "bool",
          "name": "approved",
          "type": "bool"
        }
      ],
      "name": "TokenApprovalSet",
      "type": "event"
    },
    {
      "inputs": [],
      "name": "COMPLIANCE_OFFICER",
      "outputs": [
        {
          "internalType": "bytes32",
          "name": "",
          "type": "bytes32"
        }
      ],
      "stateMutability": "view",
      "type": "function"
    },
    {
      "inputs": [],
      "name": "DEFAULT_ADMIN_ROLE",
      "outputs": [
        {
          "internalType": "bytes32",
          "name": "",
          "type": "bytes32"
        }
      ],
      "stateMutability": "view",
      "type": "function"
    },
    {
      "inputs": [
        {
          "internalType": "string",
          "name": "ruleId_",
          "type": "string"
        },
        {
          "internalType": "string",
          "name": "description_",
          "type": "string"
        },
        {
          "internalType": "string",
          "name": "jurisdiction_",
          "type": "string"
        }
      ],
      "name": "addRule",
      "outputs": [],
      "stateMutability": "nonpayable",
      "type": "function"
    },
    {
      "inputs": [
        {
          "internalType": "uint256",
          "name": "",
          "type": "uint256"
        }
      ],
      "name": "auditLog",
      "outputs": [
        {
          "internalType": "address",
          "name": "subject",
          "type": "address"
        },
        {
          "internalType": "string",
          "name": "action",
          "type": "string"
        },
        {
          "internalType": "address",
          "name": "performer",
          "type": "address"
        },
        {
          "internalType": "uint256",
          "name": "timestamp",
          "type": "uint256"
        },
        {
          "internalType": "string",
          "name": "details",
          "type": "string"
        }
      ],
      "stateMutability": "view",
      "type": "function"
    },
    {
      "inputs": [
        {
          "internalType": "address[]",
          "name": "accounts",
          "type": "address[]"
        },
        {
          "internalType": "bool",
          "name": "status",
          "type": "bool"
        }
      ],
      "name": "batchSetSanctions",
      "outputs": [],
      "stateMutability": "nonpayable",
      "type": "function"
    },
    {
      "inputs": [
        {
          "internalType": "uint256",
          "name": "offset",
          "type": "uint256"
        },
        {
          "internalType": "uint256",
          "name": "limit",
          "type": "uint256"
        }
      ],
      "name": "getAuditEntries",
      "outputs": [
        {
          "components": [
            {
              "internalType": "address",
              "name": "subject",
              "type": "address"
            },
            {
              "internalType": "string",
              "name": "action",
              "type": "string"
            },
            {
              "internalType": "address",
              "name": "performer",
              "type": "address"
            },
            {
              "internalType": "uint256",
              "name": "timestamp",
              "type": "uint256"
            },
            {
              "internalType": "string",
              "name": "details",
              "type": "string"
            }
          ],
          "internalType": "struct ComplianceRegistry.AuditEntry[]",
          "name": "",
          "type": "tuple[]"
        }
      ],
      "stateMutability": "view",
      "type": "function"
    },
    {
      "inputs": [],
      "name": "getAuditLogLength",
      "outputs": [
        {
          "internalType": "uint256",
          "name": "",
          "type": "uint256"
        }
      ],
      "stateMutability": "view",
      "type": "function"
    },
    {
      "inputs": [
        {
          "internalType": "bytes32",
          "name": "role",
          "type": "bytes32"
        }
      ],
      "name": "getRoleAdmin",
      "outputs": [
        {
          "internalType": "bytes32",
          "name": "",
          "type": "bytes32"
        }
      ],
      "stateMutability": "view",
      "type": "function"
    },
    {
      "inputs": [],
      "name": "getRuleCount",
      "outputs": [
        {
          "internalType": "uint256",
          "name": "",
          "type": "uint256"
        }
      ],
      "stateMutability": "view",
      "type": "function"
    },
    {
      "inputs": [
        {
          "internalType": "bytes32",
          "name": "role",
          "type": "bytes32"
        },
        {
          "internalType": "address",
          "name": "account",
          "type": "address"
        }
      ],
      "name": "grantRole",
      "outputs": [],
      "stateMutability": "nonpayable",
      "type": "function"
    },
    {
      "inputs": [
        {
          "internalType": "bytes32",
          "name": "role",
          "type": "bytes32"
        },
        {
          "internalType": "address",
          "name": "account",
          "type": "address"
        }
      ],
      "name": "hasRole",
      "outputs": [
        {
          "internalType": "bool",
          "name": "",
          "type": "bool"
        }
      ],
      "stateMutability": "view",
      "type": "function"
    },
    {
      "inputs": [
        {
          "internalType": "address",
          "name": "",
          "type": "address"
        }
      ],
      "name": "identities",
      "outputs": [
        {
          "internalType": "enum ComplianceRegistry.KYCStatus",
          "name": "kycStatus",
          "type": "uint8"
        },
        {
          "internalType": "enum ComplianceRegistry.InvestorType",
          "name": "investorType",
          "type": "uint8"
        },
        {
          "internalType": "string",
          "name": "jurisdiction",
          "type": "string"
        },
        {
          "internalType": "string",
          "name": "kycDocHash",
          "type": "string"
        },
        {
          "internalType": "uint256",
          "name": "verifiedAt",
          "type": "uint256"
        },
        {
          "internalType": "uint256",
          "name": "expiresAt",
          "type": "uint256"
        },
        {
          "internalType": "bool",
          "name": "sanctioned",
          "type": "bool"
        },
        {
          "internalType": "bool",
          "name": "pep",
          "type": "bool"
        },
        {
          "internalType": "uint256",
          "name": "riskScore",
          "type": "uint256"
        }
      ],
      "stateMutability": "view",
      "type": "function"
    },
    {
      "inputs": [
        {
          "internalType": "address",
          "name": "investor",
          "type": "address"
        },
        {
          "internalType": "address",
          "name": "token",
          "type": "address"
        }
      ],
      "name": "isApprovedForToken",
      "outputs": [
        {
          "internalType": "bool",
          "name": "",
          "type": "bool"
        }
      ],
      "stateMutability": "view",
      "type": "function"
    },
    {
      "inputs": [
        {
          "internalType": "address",
          "name": "account",
          "type": "address"
        }
      ],
      "name": "isCompliant",
      "outputs": [
        {
          "internalType": "bool",
          "name": "",
          "type": "bool"
        }
      ],
      "stateMutability": "view",
      "type": "function"
    },
    {
      "inputs": [
        {
          "internalType": "bytes32",
          "name": "role",
          "type": "bytes32"
        },
        {
          "internalType": "address",
          "name": "callerConfirmation",
          "type": "address"
        }
      ],
      "name": "renounceRole",
      "outputs": [],
      "stateMutability": "nonpayable",
      "type": "function"
    },
    {
      "inputs": [
        {
          "internalType": "bytes32",
          "name": "role",
          "type": "bytes32"
        },
        {
          "internalType": "address",
          "name": "account",
          "type": "address"
        }
      ],
      "name": "revokeRole",
      "outputs": [],
      "stateMutability": "nonpayable",
      "type": "function"
    },
    {
      "inputs": [
        {
          "internalType": "string",
          "name": "",
          "type": "string"
        }
      ],
      "name": "ruleIndex",
      "outputs": [
        {
          "internalType": "uint256",
          "name": "",
          "type": "uint256"
        }
      ],
      "stateMutability": "view",
      "type": "function"
    },
    {
      "inputs": [
        {
          "internalType": "uint256",
          "name": "",
          "type": "uint256"
        }
      ],
      "name": "rules",
      "outputs": [
        {
          "internalType": "string",
          "name": "ruleId",
          "type": "string"
        },
        {
          "internalType": "string",
          "name": "description",
          "type": "string"
        },
        {
          "internalType": "bool",
          "name": "active",
          "type": "bool"
        },
        {
          "internalType": "string",
          "name": "jurisdiction",
          "type": "string"
        },
        {
          "internalType": "uint256",
          "name": "createdAt",
          "type": "uint256"
        }
      ],
      "stateMutability": "view",
      "type": "function"
    },
    {
      "inputs": [
        {
          "internalType": "address",
          "name": "",
          "type": "address"
        }
      ],
      "name": "sanctionsList",
      "outputs": [
        {
          "internalType": "bool",
          "name": "",
          "type": "bool"
        }
      ],
      "stateMutability": "view",
      "type": "function"
    },
    {
      "inputs": [
        {
          "internalType": "address",
          "name": "account",
          "type": "address"
        },
        {
          "internalType": "enum ComplianceRegistry.KYCStatus",
          "name": "status",
          "type": "uint8"
        },
        {
          "internalType": "enum ComplianceRegistry.InvestorType",
          "name": "investorType_",
          "type": "uint8"
        },
        {
          "internalType": "string",
          "name": "jurisdiction_",
          "type": "string"
        },
        {
          "internalType": "string",
          "name": "kycDocHash_",
          "type": "string"
        },
        {
          "internalType": "uint256",
          "name": "expiresAt_",
          "type": "uint256"
        },
        {
          "internalType": "bool",
          "name": "pep_",
          "type": "bool"
        },
        {
          "internalType": "uint256",
          "name": "riskScore_",
          "type": "uint256"
        }
      ],
      "name": "setIdentity",
      "outputs": [],
      "stateMutability": "nonpayable",
      "type": "function"
    },
    {
      "inputs": [
        {
          "internalType": "address",
          "name": "account",
          "type": "address"
        },
        {
          "internalType": "bool",
          "name": "status",
          "type": "bool"
        }
      ],
      "name": "setSanction",
      "outputs": [],
      "stateMutability": "nonpayable",
      "type": "function"
    },
    {
      "inputs": [
        {
          "internalType": "address",
          "name": "investor",
          "type": "address"
        },
        {
          "internalType": "address",
          "name": "token",
          "type": "address"
        },
        {
          "internalType": "bool",
          "name": "approved",
          "type": "bool"
        }
      ],
      "name": "setTokenApproval",
      "outputs": [],
      "stateMutability": "nonpayable",
      "type": "function"
    },
    {
      "inputs": [
        {
          "internalType": "bytes4",
          "name": "interfaceId",
          "type": "bytes4"
        }
      ],
      "name": "supportsInterface",
      "outputs": [
        {
          "internalType": "bool",
          "name": "",
          "type": "bool"
        }
      ],
      "stateMutability": "view",
      "type": "function"
    },
    {
      "inputs": [
        {
          "internalType": "string",
          "name": "ruleId_",
          "type": "string"
        }
      ],
      "name": "toggleRule",
      "outputs": [],
      "stateMutability": "nonpayable",
      "type": "function"
    },
    {
      "inputs": [
        {
          "internalType": "address",
          "name": "",
          "type": "address"
        },
        {
          "internalType": "address",
          "name": "",
          "type": "address"
        }
      ],
      "name": "tokenApprovals",
      "outputs": [
        {
          "internalType": "bool",
          "name": "",
          "type": "bool"
        }
      ],
      "stateMutability": "view",
      "type": "function"
    }
  ],
  "bytecode": "0x6080604052346200003257620000153362000037565b506200002133620000b7565b506040516121e490816200015a8239f35b600080fd5b6001600160a01b031660008181527fad3228b676f7d3cd4284a5443f17f1962b36e491b30a40b2405849e597ba5fb5602052604081205490919060ff16620000b357818052816020526040822081835260205260408220600160ff1982541617905533916000805160206200233e8339815191528180a4600190565b5090565b6001600160a01b031660008181527fca440bb5b4f276d246650b92ae261b87f0f2224864f13e13edcfda2aaca5310260205260408120549091907fb938b4e8be78c5b3d6090a6dcee4f5257472278c0aaffb0b01bee86005dc1fee9060ff166200015457808352826020526040832082845260205260408320600160ff198254161790556000805160206200233e833981519152339380a4600190565b50509056fe608080604052600436101561001357600080fd5b60003560e01c90816301ffc9a7146117ca5750806304d6ded4146117265780631331388114611708578063248a9ca3146116d95780632649f869146115b05780632b994aec1461155a5780632f2ff15d1461151b57806336568abe146114d45780633919f9f51461140157806340c381c6146113cb578063496a1d00146112955780635c3ca9101461127757806365b33fd11461107e5780636ec677ed14610bde5780636eeb8f1c14610b9f57806374b14d9a14610b6457806391d1485414610b17578063a200e5d0146109f2578063a217fddf146109d6578063aa92bfef14610969578063aecdc97d14610416578063d547741f146103d5578063f22ac6f11461033c578063f5329fd01461020e5763f653b81e1461013257600080fd5b34610209576020366003190112610209576001600160a01b03610153611a53565b1660005260016020526101c0604060002080549061017360018201611956565b60ff61018160028401611956565b926003810154936101df6004830154916101d160066005860154950154966040519a8a6101b18d8a819e16611af2565b8860208d019160081c16611aff565b6101208060408c01528a0190611a1f565b9088820360608a0152611a1f565b94608087015260a0860152818116151560c086015260081c16151560e08401526101008301520390f35b600080fd5b3461020957606036600319011261020957610227611a53565b61022f611a69565b906044359081151590818303610209577f898cb79796811cef4a2a8b7119a91ad8cdc78d333412eb801856054d059163bd91610269611b0c565b61030960018060a01b039283811695866000526020946002865260406000209816978860005285526102ab8160406000209060ff801983541691151516179055565b15610312576040516102bc8161191a565b600e81526d1513d2d15397d054141493d5915160921b858201525b604051916102e48361191a565b6014835273151bdad95b881858d8d95cdcc818da185b99d95960621b86840152611e24565b604051908152a3005b60405161031e8161191a565b600d81526c1513d2d15397d4915593d2d151609a1b858201526102d7565b3461020957602036600319011261020957600435600654811015610209576103639061186e565b5080546001600160a01b0391908216906103d19061038360018201611956565b936002820154169061039c600460038301549201611956565b906103b9604051968796875260a0602088015260a0870190611a1f565b92604086015260608501528382036080850152611a1f565b0390f35b34610209576040366003190112610209576104146004356103f4611a69565b9080600052600060205261040f600160406000200154611b86565b611c2a565b005b34610209576060366003190112610209576004356001600160401b03811161020957610446903690600401611a7f565b906024356001600160401b03811161020957610466903690600401611a7f565b92906044356001600160401b03811161020957610487903690600401611a7f565b919094610492611b0c565b6003548060405186888237602081888101600481520301902055604051906104b9826118e3565b6104c4368789611aac565b82526104d1368486611aac565b6020830152600160408301526104e836868a611aac565b6060830152426080830152600160401b8110156107a65780600161050f920160035561181d565b9190916109535780518051906001600160401b0382116107a657819061053585546118a9565b601f8111610903575b50602090601f83116001146108975760009261088c575b50508160011b916000199060031b1c19161782555b60208101518051906001600160401b0382116107a657819061058f60018601546118a9565b601f8111610839575b50602090601f83116001146107c7576000926107bc575b50508160011b916000199060031b1c19161760018301555b6105e660408201511515600284019060ff801983541691151516179055565b60608101518051906001600160401b0382116107a65761060960038501546118a9565b601f811161075f575b50602090601f83116001146106be5760807ff23590f8d80c3d0ba4d7d1873d6e0d73503b891a5ea08c5fb7efeca3bd68cdee9b9794846106ae9a98956106a098956004956000926106b3575b50508160011b916000199060031b1c19161760038501555b015191015561069260405198899860608a5260608a0191611e03565b918783036020890152611e03565b918483036040860152611e03565b0390a1005b015190508f8061065e565b906003850160005260206000209160005b601f198516811061074757507ff23590f8d80c3d0ba4d7d1873d6e0d73503b891a5ea08c5fb7efeca3bd68cdee9b97946001856106a098956004956080956106ae9e9c99601f1981161061072e575b505050811b016003850155610676565b015160001960f88460031b161c191690558f808061071e565b919260206001819286850151815501940192016106cf565b600385016000526020600020601f840160051c81016020851061079f575b601f830160051c82018110610793575050610612565b6000815560010161077d565b508061077d565b634e487b7160e01b600052604160045260246000fd5b015190508a806105af565b9250600185016000526020600020906000935b601f198416851061081e576001945083601f19811610610805575b505050811b0160018301556105c7565b015160001960f88460031b161c191690558a80806107f5565b818101518355602094850194600190930192909101906107da565b909150600185016000526020600020601f840160051c810160208510610885575b90849392915b601f830160051c82018110610876575050610598565b60008155859450600101610860565b508061085a565b015190508a80610555565b9250846000526020600020906000935b601f19841685106108e8576001945083601f198116106108cf575b505050811b01825561056a565b015160001960f88460031b161c191690558a80806108c2565b818101518355602094850194600190930192909101906108a7565b909150846000526020600020601f840160051c81016020851061094c575b90849392915b601f830160051c8201811061093d57505061053e565b60008155859450600101610927565b5080610921565b634e487b7160e01b600052600060045260246000fd5b34610209576020366003190112610209576004356001600160401b0381116102095736602382011215610209576109c360206109b081933690602481600401359101611aac565b81604051938285809451938492016119fc565b8101600481520301902054604051908152f35b3461020957600036600319011261020957602060405160008152f35b34610209576020366003190112610209576001600160a01b03610a13611a53565b166000526001602052604060002060405190610a2e826118fe565b610a4e60ff8254610a4182821686611c9f565b60081c1660208401611cab565b610a5a60018201611956565b6040830152610a6b60028201611956565b60608301526003810154608083015260048101549160a08101928352600660058301549260ff60c08401948181161515865260081c16151560e0840152015461010082015251916005831015610b01576002602093149182610af7575b5081610ada575b506040519015158152f35b51801591508115610aed575b5082610acf565b9050421082610ae6565b5115915083610ac8565b634e487b7160e01b600052602160045260246000fd5b3461020957604036600319011261020957610b30611a69565b600435600052600060205260406000209060018060a01b0316600052602052602060ff604060002054166040519015158152f35b346102095760003660031901126102095760206040517fb938b4e8be78c5b3d6090a6dcee4f5257472278c0aaffb0b01bee86005dc1fee8152f35b34610209576020366003190112610209576001600160a01b03610bc0611a53565b166000526005602052602060ff604060002054166040519015158152f35b346102095761010036600319011261020957610bf8611a53565b600560243510156102095760036044351015610209576064356001600160401b03811161020957610c2d903690600401611a7f565b91906084356001600160401b03811161020957610c4e903690600401611a7f565b60c4359291831515840361020957610cc191610c68611b0c565b60018060a01b0386166000526005602052610cb560ff604060002054169460405198610c938a6118fe565b610c9f6024358b611c9f565b610cae60443560208c01611cab565b3691611aac565b60408801523691611aac565b606085015242608085015260a43560a0850152151560c0840152151560e083015260e4356101008301526001600160a01b038116600090815260016020526040902082516005811015610b0157815460208501516003811015610b015761ff0060ff9160081b1692169061ffff19161717815560408301519283516001600160401b0381116107a657610d5760018401546118a9565b601f8111611037575b506020601f8211600114610fca578192939495600092610fbf575b50508160011b916000199060031b1c19161760018301555b60608101518051906001600160401b0382116107a657610db660028501546118a9565b601f8111610f78575b50602090601f8311600114610f025791806006949261010094600092610ef7575b50508160011b916000199060031b1c19161760028501555b6080810151600385015560a0810151600485015560058401610e2c60c08301511515829060ff801983541691151516179055565b60e0820151815461ff00191690151560081b61ff00161790550151910155604051610ea990610e5a8161191a565b601081526f125111539512551657d554111055115160821b602082015260405190610e848261191a565b601282527112d650c81cdd185d1d5cc818da185b99d95960721b602083015283611e24565b7f9d46c17d71fcfb346dacb44bc99f4c6fde18f5fca70644e69a2177dcda928ca06040805192610edb84602435611af2565b610eea60208501604435611aff565b6001600160a01b031692a2005b015190508780610de0565b906002850160005260206000209160005b601f1985168110610f60575092600694926001926101009583601f19811610610f47575b505050811b016002850155610df8565b015160001960f88460031b161c19169055878080610f37565b91926020600181928685015181550194019201610f13565b600285016000526020600020601f840160051c810160208510610fb8575b601f830160051c82018110610fac575050610dbf565b60008155600101610f96565b5080610f96565b015190508580610d7b565b60018401600052602060002090600096601f198416975b88811061101f57508360019596979810611006575b505050811b016001830155610d93565b015160001960f88460031b161c19169055858080610ff6565b91926020600181928685015181550194019201610fe1565b600184016000526020600020601f830160051c810160208410611077575b601f830160051c8201811061106b575050610d60565b60008155600101611055565b5080611055565b3461020957604036600319011261020957600435602435810180821161126157600654808211611259575b506110b48282612176565b916110be83612183565b926110cc6040519485611935565b8084526110db601f1991612183565b0160005b818110611220575050805b828110611196576040805160208082528651818301819052600093600582901b8401810192808a01929185015b8287106111245785850386f35b909192938280611186600193603f198a82030186528851858060a01b039182825116815261115e8583015160a08088850152830190611a1f565b9260408301511660408201526060808301519082015260808092015191818403910152611a1f565b9601920196019592919092611117565b806112156111a661121b9361186e565b506111b18584612176565b906111ff6004604051926111c4846118e3565b80546001600160a01b0390811685526111df60018301611956565b602086015260028201541660408501526003810154606085015201611956565b608082015261120e828961219a565b528661219a565b50611dd0565b6110ea565b60209060405161122f816118e3565b600081526060839080828401526000604084015260008184015260808301528288010152016110df565b9050826110a9565b634e487b7160e01b600052601160045260246000fd5b34610209576000366003190112610209576020600354604051908152f35b34610209576040366003190112610209576112ae611a53565b7f087c51f3303033f9686297ea31584d2ad5219efa00dc6204ec99425baf995a986112d7611a44565b916112e0611b0c565b60018060a01b0381169283600052611397602092600584526113128360406000209060ff801983541691151516179055565b600184526113338360056040600020019060ff801983541691151516179055565b82156113a2576040516113458161191a565b600a81526914d05390d51253d3915160b21b858201525b604051916113698361191a565b601783527f53616e6374696f6e20737461747573206368616e67656400000000000000000086840152611e24565b6040519015158152a2005b6040516113ae8161191a565b600c81526b155394d05390d51253d3915160a21b8582015261135c565b346102095760403660031901126102095760206113f76113e9611a53565b6113f1611a69565b90611cb7565b6040519015158152f35b34610209576020366003190112610209576004356001600160401b038111610209576114527f7d7ca3cb848905fad7f62c5ac47993c9011c7cb20d86007adb63f0653df9f220913690600401611a7f565b61145a611b0c565b60ff60026114ac604051848682376020818681016004815203019020546114a784846114858461181d565b5001541615846114948461181d565b50019060ff801983541691151516179055565b61181d565b500154166114c7604051938493604085526040850191611e03565b90151560208301520390a1005b34610209576040366003190112610209576114ed611a69565b336001600160a01b038216036115095761041490600435611c2a565b60405163334bd91960e11b8152600490fd5b346102095760403660031901126102095761041460043561153a611a69565b90806000526000602052611555600160406000200154611b86565b611bac565b3461020957604036600319011261020957611573611a53565b61157b611a69565b9060018060a01b03809116600052600260205260406000209116600052602052602060ff604060002054166040519015158152f35b34610209576040366003190112610209576001600160401b0360043581811161020957366023820112156102095780600401359182116102095760248101916005916024369183851b0101116102095790611609611a44565b91611612611b0c565b8215159160005b82811061162257005b6116d490857f087c51f3303033f9686297ea31584d2ad5219efa00dc6204ec99425baf995a986001600160a01b0380611694611667868a8e8561166c85858585611ddf565b611def565b1660005261168f6020998d8b5260406000209060ff801983541691151516179055565b611ddf565b16600052600183526116b889876040600020019060ff801983541691151516179055565b6116c661166785898d611ddf565b1691604051888152a2611dd0565b611619565b346102095760203660031901126102095760043560005260006020526020600160406000200154604051908152f35b34610209576000366003190112610209576020600654604051908152f35b34610209576020366003190112610209576004356003548110156102095761175061179d9161181d565b5061175a81611956565b906117c061176a60018301611956565b9160ff600282015416906117ab600461178560038401611956565b9201549460405197889760a0895260a0890190611a1f565b908782036020890152611a1f565b91151560408601528482036060860152611a1f565b9060808301520390f35b34610209576020366003190112610209576004359063ffffffff60e01b821680920361020957602091637965db0b60e01b811490811561180c575b5015158152f35b6301ffc9a760e01b14905083611805565b600354811015611858576005906003600052027fc2575a0e9e593c00f959f8c92f12db2869c3395a3b0502d05e2516446f71f85b0190600090565b634e487b7160e01b600052603260045260246000fd5b600654811015611858576005906006600052027ff652222313e28459528d920b65115c16c04f3efc82aaedc97be59f3f377c0d3f0190600090565b90600182811c921680156118d9575b60208310146118c357565b634e487b7160e01b600052602260045260246000fd5b91607f16916118b8565b60a081019081106001600160401b038211176107a657604052565b61012081019081106001600160401b038211176107a657604052565b604081019081106001600160401b038211176107a657604052565b90601f801991011681019081106001600160401b038211176107a657604052565b906040519182600082549261196a846118a9565b9081845260019485811690816000146119d95750600114611996575b505061199492500383611935565b565b9093915060005260209081600020936000915b8183106119c157505061199493508201013880611986565b855488840185015294850194879450918301916119a9565b91505061199494506020925060ff191682840152151560051b8201013880611986565b60005b838110611a0f5750506000910152565b81810151838201526020016119ff565b90602091611a38815180928185528580860191016119fc565b601f01601f1916010190565b60243590811515820361020957565b600435906001600160a01b038216820361020957565b602435906001600160a01b038216820361020957565b9181601f84011215610209578235916001600160401b038311610209576020838186019501011161020957565b9291926001600160401b0382116107a65760405191611ad5601f8201601f191660200184611935565b829481845281830111610209578281602093846000960137010152565b906005821015610b015752565b906003821015610b015752565b3360009081527fca440bb5b4f276d246650b92ae261b87f0f2224864f13e13edcfda2aaca5310260205260409020547fb938b4e8be78c5b3d6090a6dcee4f5257472278c0aaffb0b01bee86005dc1fee9060ff1615611b685750565b6044906040519063e2517d3f60e01b82523360048301526024820152fd5b80600052600060205260406000203360005260205260ff6040600020541615611b685750565b9060009180835282602052604083209160018060a01b03169182845260205260ff60408420541615600014611c2557808352826020526040832082845260205260408320600160ff198254161790557f2f8788117e7eff1d82e926ec794901d17c78024a50270940304540a733656f0d339380a4600190565b505090565b9060009180835282602052604083209160018060a01b03169182845260205260ff604084205416600014611c255780835282602052604083208284526020526040832060ff1981541690557ff6391f5c32d9c69d2a47ea670b442974b53935d1edc7fd64eb21e047a839171b339380a4600190565b6005821015610b015752565b6003821015610b015752565b6001600160a01b039081166000818152600160205260408082209051919493929190611ce2826118fe565b611cf560ff8254610a4182821686611c9f565b611d0160018201611956565b6040830152611d1260028201611956565b60608301526003810154608083015260048101549160a08101928352600660058301549260ff60c08401948181161515865260081c16151560e08401520154610100820152516005811015611dbc57600203611db45751611dad57518015159081611da2575b50611d9c5791839160409360ff955260026020528383209116825260205220541690565b50505090565b905042101538611d78565b5050505090565b505050505090565b634e487b7160e01b87526021600452602487fd5b60001981146112615760010190565b91908110156118585760051b0190565b356001600160a01b03811681036102095790565b908060209392818452848401376000828201840152601f01601f1916010190565b9190916006549160405190611e38826118e3565b6001600160a01b0383168252602082018581523360408401524260608401526080830191909152600160401b8410156107a65760018401600655611e7b8461186e565b91909161095357825182546001600160a01b0319166001600160a01b0391909116178255518051906001600160401b0382116107a657611ebe60018401546118a9565b601f811161212f575b50602090601f83116001146120bc579180608094926004946000926120b1575b50508160011b916000199060031b1c19161760018201555b6002810160018060a01b036040860151166bffffffffffffffffffffffff60a01b82541617905560608401516003820155019101518051906001600160401b0382116107a657611f4f83546118a9565b601f8111612069575b50602090601f8311600114611fdb579180611fcb94927fdf4d3ebb1a3ce7e1f606b17c08557a6cb4bbfa3236d97baccfd547159aa513599694600092611fd0575b50508160011b916000199060031b1c19161790555b6040519182916020835260018060a01b0316956020830190611a1f565b0390a3565b015190503880611f99565b90601f198316918460005260206000209260005b81811061205157509260019285927fdf4d3ebb1a3ce7e1f606b17c08557a6cb4bbfa3236d97baccfd547159aa513599896611fcb989610612038575b505050811b019055611fae565b015160001960f88460031b161c1916905538808061202b565b92936020600181928786015181550195019301611fef565b836000526020600020601f840160051c810191602085106120a7575b601f0160051c01905b81811061209b5750611f58565b6000815560010161208e565b9091508190612085565b015190503880611ee7565b90601f198316916001850160005260206000209260005b818110612117575092600192859260049660809896106120fe575b505050811b016001820155611eff565b015160001960f88460031b161c191690553880806120ee565b929360206001819287860151815501950193016120d3565b600184016000526020600020601f840160051c81016020851061216f575b601f830160051c82018110612163575050611ec7565b6000815560010161214d565b508061214d565b9190820391821161126157565b6001600160401b0381116107a65760051b60200190565b80518210156118585760209160051b01019056fea2646970667358221220c16ed269412202b5bf2eba0f962af5eff95163829b3b5427424752778cf276d964736f6c634300081400332f8788117e7eff1d82e926ec794901d17c78024a50270940304540a733656f0d",
  "linkReferences": {},
  "deployedLinkReferences": {}
}